:020000040800F2
:100000005805002001010008432500089923000835
:1000100041250008810A0008612A0008000000004C
:100020000000000000000000000000009926000809
:10003000070B000800000000972600089B26000818
:100040001B0100081B0100081B0100081B01000820
:100050001B0100081B0100081B0100081B01000810
:100060001B0100081B0100081B010008D10A000841
:100070001B0100081B0100081B0100081B010008F0
:100080001B0100081B0100081B0100081B010008E0
:10009000552A00081B0100081B0100081B0100086D
:1000A0001B0100081B0100081B0100081B010008C0
:1000B0001B0100081B0100081B0100081B010008B0
:1000C0001B0100081B0100081B0100081B010008A0
:1000D0001B0100081B0100081B0100081B01000890
:1000E0001B0100081B0100081B010008DFF80CD0F1
:1000F00000F094FB004800474535000858050020F3
:100100000648804706480047FEE7FEE7FEE7FEE7B1
:10011000FEE7FEE7FEE7FEE7FEE7FEE7FD26000856
:10012000ED000008202A04DB203A21FA02F0002129
:10013000704721FA02F3D040C2F1200291400843F7
:1001400019467047D2B201E000F8012B491EFBD2DC
:1001500070470022F6E710B513460A4604461946D2
:10016000FFF7F0FF204610BDF0B480EA0102D40F83
:100170004200B2EB410F02D20246084611464A0045
:1001800042D0C30DDDB2C1F3C752AD1A202D35DA0E
:10019000C1F3160141F4000204B15242C5F1200638
:1001A00002FA06F12A411044B3EBD05F23D0C4B168
:1001B000012DA0EBC35009DCF0BC4FF0004202EA75
:1001C000C352DBB200F5000000F02CB9400000F192
:1001D000807000EBC350A0F1807040EAD1704900FC
:1001E00009E0490841EAC071A0EBC35000F50000E6
:1001F000400800EBC350F0BC00F00BB96142012293
:1002000002EB4101001BF6E7F0BC704781F00041B2
:10021000AAE780F00040A7E780EA010210B502F0EB
:100220000043400022D04A001FD0010E01EB1261B2
:10023000C0F35600C2F3560240F4000042F400023C
:10024000A0FB022000047F39140400D0401C50EAB7
:10025000124001D44000491EC2B20C0604EBD0107B
:10026000401C4008802A02D003E0002010BD20F08E
:100270000100002900DA0020184310BD30B480EAE4
:10028000010202F0004530F0004221F0004013D09E
:1002900090B1C30DD40DC2F31601C0F31600E41AD9
:1002A00041F4000140F400027D34914201D3641C0A
:1002B00000E04900002C02DA30BC002070474FF407
:1002C00000000023914201D3891A034340084FEAFA
:1002D0004101F7D151B1914202D14FF0004105E007
:1002E00002D24FF0010101E06FF0010103EBC450B5
:1002F000284430BC00F08DB896230022114600F04F
:1003000091B800F0004220F00040C10DC0F316008B
:1003100040F400007F2901DA00207047962903DCB1
:10032000C1F19601C84001E096398840002AF4D016
:100330004042704700F0004230F000400AD0C10D4A
:1003400001F56071C0F3160042EA0151C20840078E
:10035000114370470020014670470000002801DB70
:10036000C0F10040002901DBC1F10041814270472A
:10037000002801DBC0F10040002901DBC1F1004190
:100380008842704730B50B460146002020220124E8
:1003900009E021FA02F59D4205D303FA02F5491B53
:1003A00004FA02F52844151EA2F10102F1DC30BD69
:1003B0002DE9F05F0546002092469B46884606469A
:1003C000814640241BE02846414647462246FFF727
:1003D000A9FE53465A46C01A914110D311461846F9
:1003E000224600F02DFA2D1A67EB01084F462246EF
:1003F0000120002100F024FA17EB00094E41201ED5
:10040000A4F10104DFDC484631462A464346BDE8F4
:10041000F09F0029A8BF7047401C490008BF20F08A
:100420000100704710B4B0FA80FC00FA0CF050EAFA
:10043000010404BF10BC704749B1CCF1200421FA7B
:1004400004F411FA0CF118BF012121430843A3EB76
:100450000C01CB1D4FEA00614FEA102042BF002083
:1004600010BC704700EBC35010440029A4BF10BC5F
:100470007047401C490008BF20F0010010BC7047C5
:10048000420005D0C0F3C7525242914201DC002025
:10049000704700EBC15070472DE9FE4F804681EA5E
:1004A0000300C00F0C46009021F0004123F00045EE
:1004B000B8EB0200A94105D24046214690461C46B1
:1004C0000B46024623F00040104347D0270DC7F3E8
:1004D0000A00C3F30A510290401A019040286BDAD7
:1004E000C3F3130040F4801B0098924620B1002310
:1004F000D2EB030A63EB0B0B01985946C0F14002A3
:10050000504600F09DF906460D4650465946019A60
:1005100000F0A5F910EB08006141002487EA1152B0
:1005200084EAE7731A4340D0009A62B3019A012A21
:100530004FEA075215DC001B61EB02014FF000424D
:1005400002EA0752CDE90042001C41F58011324613
:100550002B4600F0A5F903B0BDE8F08F40462146D8
:10056000F9E7001B61EB0201001C41F58013001844
:100570005B412018A2F5001747EB030140EAD57054
:10058000B6196D4111E06D084FEA360645EAC075AF
:100590004FEA0752001B61EB0201001C41F580117C
:1005A00049084FEA30000019514132462B4603B04A
:1005B000BDE8F04F00F065B900980122400000232B
:1005C000D0EB020263EBE073009821464FEAE0743F
:1005D000B8EB000061EB0401E9E783F000435BE75F
:1005E00081F0004158E72DE9FE4F81EA030404F051
:1005F000004421F0004100944FF0000B23F0004331
:1006000050EA01045ED052EA03045BD0C3F30A54FB
:10061000C1F30A552C44A4F2F3340194A0FB025414
:10062000C1F3130141F48011C3F3130343F48013A6
:1006300001FB024400FB034E840A970A44EA8154FA
:1006400047EA8357A4FB076802958D0A05FB0785D7
:100650004FEA932C04FB0C542705029D4FEA0658E1
:1006600047EA1637B5EB08056EEB070C870E920EBE
:1006700047EA811742EA8312A7FB0201B6EB0B019E
:1006800064EB00042B0D43EA0C335E1844EB1C5062
:10069000DA465146E7FB0201C5F313044FEA0B3378
:1006A00043EA14534FEA0432019C43EA0603A4F1DF
:1006B0000C040294009CCDE900B400F0F1F803B002
:1006C000BDE8F08F00200146F9E72DE9F04D81EA01
:1006D000030404F0004B21F0004514464FF0000ADB
:1006E00023F0004150EA050220D054EA01021DD057
:1006F000C5F30A570246C5F31303C1F31300C1F350
:100700000A5640F4801543F48013A7EB0608101B2B
:10071000D64608F2FD3873EB050002D308F1010854
:1007200001E092185B41B8F1000F03DA00200146A6
:10073000BDE8F08D00204FF48011064684460EE09F
:10074000171B73EB050705D3121B63EB0503064369
:100750004CEA010C49084FEA300092185B4150EA1C
:100760000107EDD152EA030012D082EA040083EAC5
:100770000501084305D0101BAB4106D2012200231E
:1007800006E000224FF0004302E06FF00102531038
:100790001AEB06004CEB085110EB0A0041EB0B0181
:1007A000BDE8F04D00F06DB8C10F80EAE07008447C
:1007B000CA0796230021FFF735BEC1F30A52C1F3E1
:1007C000130140F2FF3341F480119A4202DA002013
:1007D0000146704740F233439A42A2F2334202DCB0
:1007E0005242FFF79FBC00F02BB8000030B5041E4A
:1007F00071F1000404DB4FF00044404264EB01015E
:10080000141E73F1000405DB1C464FF000435242F6
:1008100063EB0403994208BF904230BD064C074D7C
:1008200006E0E06840F0010394E8070098471034C0
:10083000AC42F6D3FFF75EFCAC360008CC360008BD
:10084000202A04DB203A00FA02F100207047914090
:10085000C2F1200320FA03F3194390407047202A85
:1008600006DBCB17203A41FA02F043EAE07306E0D8
:1008700041FA02F3D040C2F12002914008431946E8
:10088000704710B5141E73F1000408DA401C41F1E2
:10089000000192185B411A4301D120F0010010BD04
:1008A0002DE9F04D92469B4611B1B1FA81F202E07A
:1008B000B0FA80F220329046FFF7C2FF04460F469E
:1008C00040EA0A0041EA0B0153465A46084313D056
:1008D000114653EA010019D0C8F140025046FFF713
:1008E00021FC05460E46504659464246FFF7A8FFF2
:1008F000084305D0012004E020463946BDE8F08DCC
:100900000020054346EAE0762C4337430A98630506
:10091000E40AA0EB08000022FD0A44EA47540A302A
:1009200002D500200146E9E7010510196941DDE91A
:10093000084500196941BDE8F04DA2E770B50446CD
:1009400000688168C943C90717D1816821F0010196
:10095000816000F0F7FF05460AE000BF00F0F2FFFB
:10096000401B022804D920688068C043C00706D015
:1009700020688068C043C007F0D0002070BDA06A26
:1009800040F01000A062E06A40F00100E062012047
:1009900070BD10B50146406A826A12F0500F05D052
:1009A000006A026BBDE8104008461047816A41F4B6
:1009B0000071816201688968C1F3424107290CD145
:1009C000017B51B9816A21F480718162816AC90415
:1009D00003D4816A41F00101816200F015F910BD74
:1009E00010B5406A816A41F040018162C16A41F0FC
:1009F0000401C16200F00AF910BD10B5406A00F0B0
:100A000004F910BDF8B50026044600960068816818
:100A1000C943C9072DD0816841F0010181601648A2
:100A200016490068B0FBF1F000E0401E009000287D
:100A3000FBD100F087FF054616E000BF00F082FF03
:100A4000401B022810D920688068C043C0070BD023
:100A5000A06A40F01000A062E06A40F00100E0628D
:100A600084F824600120F8BD20688068C043C00776
:100A7000E4D10020F8BD00002000002040420F001B
:100A8000FEE7000000B58BB000200121CDE9060192
:100A9000039005900090019002900891049069469F
:100AA0000A4800F023FA08B100F02EF8074800F0D9
:100AB00003FD08B100F028F80221044800F004FA10
:100AC000002801D000F020F80BB000BD2C00002061
:100AD000014800F025BD0000CC00002030B590F8A2
:100AE00040500124AC40C56B6C600468636043688F
:100AF000102B036803D099600068C26030BD9A6013
:100B00000068C16030BD704772B6FEE7F8B50024DA
:100B1000009490F824202546012A12D0012280F862
:100B200024204A681F23072A0DD20668776B521EBD
:100B300002EB820293409F430B6893401F4377630D
:100B400019E00220F8BD06680D2A0AD2376BD21FC1
:100B500002EB820293409F430B6893401F4337632D
:100B600009E0F76A0D3A02EB820293409F430B685B
:100B700093401F43F7620A68072306680A2A0AD3CC
:100B8000F7680A3A02EB420293409F438B68934016
:100B90001F43F76008E0376902EB420293409F432E
:100BA0008B6893401F4337610A68102A01D0112ACD
:100BB00020D1124B02689A4217D193681B0219D4B4
:100BC000936843F4000393600968102912D10C491B
:100BD0000C4A0968B1FBF2F101EB8101490000E028
:100BE000491E00910029FBD104E0816A41F02001F7
:100BF0008162012480F824502046F8BD0024014081
:100C00002000002040420F007047704770470000EE
:100C10002DE9F0414FF0000704003D467ED0A06A68
:100C2000002628B9E66284F82460204600F07EF8A9
:100C30002046FFF783FEA16AC90600D420B1A06A4E
:100C400040F01000A06269E0A16A21F4885141F0EF
:100C50000201A1626268E169237B0A4347EA43011A
:100C60000A43A1684FF48077B94209D0012907D01F
:100C70005FF0000194F814C0BCF1010F02D00AE04B
:100C80003946F7E7F3B1A36A43F02003A362E36AAE
:100C900043F00103E3622368D3F804C02CF4694CE9
:100CA0004CEA010CC3F804C021688B68DFF870C0FF
:100CB00003EA0C0313438B60A168B9420BD00129EE
:100CC00009D00CE0DFF85CC0A3690CEB43330B43A5
:100CD00043F40061DFE7218A0D05A5F58015216841
:100CE000CB6A23F470032B43CB62216889680E4BD7
:100CF0001940914208D1E662A16A21F0020141F057
:100D00000101A162BDE8F081A06A20F0020040F07C
:100D10001000A062E06A40F00100E0620120F1E70B
:100D2000FDF7E1FF00E0FFFFFE0E1FFF70B586B08C
:100D300000260546009601960296039600681A4919
:100D400088422FD11949886940F400708861886908
:100D500000F400700490886940F00400886188699C
:100D6000694600F0040004904020009003200190A8
:100D70000F4800F0F7FC104C0E48C4E90006802034
:100D8000C4E9026040002061800060612020A06111
:100D9000C001E061204600F06DFC08B1FFF7B4FE31
:100DA0002C62656206B070BD002401400010024054
:100DB0000008014008000240CC0000202DE9F04767
:100DC000894604463B4900683B4F0E1D90468842C9
:100DD00001D0B84207D1306810F4702F03D001253C
:100DE0002846BDE8F08794F8240001280CD00120A3
:100DF00084F824002046FFF705FE05004FF00000B0
:100E000004D084F82400EBE70220EAE7A16A40F668
:100E10000162914341F48071A1622168B94218D105
:100E2000326812F4702F14D0A16A41F48011A162CB
:100E30003168490505D5A16A21F4005141F480517A
:100E4000A162A16AC9040AD5E16A21F00601E16242
:100E500006E0A26A22F48012A2624968E9E7E06231
:100E600084F82400216A15488862216A1448C862FF
:100E7000216A1448086321686FF002000860206846
:100E8000816841F480718160216843464A464C3153
:100E9000206A00F01DFC20688168C1F342410729E7
:100EA000816803D041F48011816099E741F4A00189
:100EB000FAE70000002401400028014093090008DF
:100EC000FB090008E109000890F82020012A07D05A
:100ED000022A05D0416A41F4802141620120704715
:100EE000006842690A4342610020704710B590F8DB
:100EF00020300268012B07D0022B05D0416A41F453
:100F000080214162012010BDD2F8000240F00100B2
:100F1000C2F80002087D00F01F0301209840D2F8BB
:100F20001C328343C2F81C32CB69B3B9D2F80C32FD
:100F30008343C2F80C328C894B6864F31F434C69BD
:100F400002EBC404C4F840320C890B6864F31F43FD
:100F50004C6902EBC404C4F84432CB69012B16D1AE
:100F6000D2F80C320343C2F80C320C884B6864F39D
:100F70001F434C6902EBC404C4F840320C89CB68AF
:100F800064F31F434C6902EBC404C4F844328B6918
:100F9000002BD2F804320FD053EA0003C2F8043217
:100FA0000B69002BD2F8143208D00343C2F8143274
:100FB000096A012904D008E08343EFE78343F5E79A
:100FC000D2F81C120143C2F81C12D2F8000220F021
:100FD0000100C2F80002002010BD704770B590F803
:100FE0002040012C05D0022C03D0416A41F480211D
:100FF00028E0046809B32469A40720D04FF4D8740A
:10100000056804EB01142D5915F004059560056879
:101010002D591AD0ED08556005682C5904F00204CA
:10102000D4604FF4DA74056804EB01142E5906F00D
:101030000F06082E0CD308250DE0E468DCE7416AB2
:1010400041F400114162012070BD6D0D1560E3E7B0
:101050002D5905F00F05156105682D59C5F30725B4
:10106000956105682C59240C54614FF4DC720468B6
:1010700002EB0112A4581C700468A458240A5C7086
:101080000468A458240C9C700468A258120EDA70EC
:101090004FF4DE72046802EB0112A4581C7104685C
:1010A000A458240A5C710468A458240C9C71046838
:1010B000A258120EDA71006829B1016941F02001CD
:1010C0000161002070BDC16841F02001C160F8E7F6
:1010D0002DE9F05F0546006800244669D0F80490C9
:1010E0008768D0F80CB0D0F810A0D0F81880F107BD
:1010F00048D0F90714D001218160B80703D52846EC
:1011000000F007FA0CE0780702D54FF4006407E01E
:10111000380702D54FF4805402E0284600F0F8F971
:10112000F80516D529684FF480708860B80503D596
:10113000284600F0F0F90CE0780502D544F400549C
:1011400007E0380502D544F4804402E0284600F068
:10115000E1F9F80316D529684FF480308860B803A8
:1011600003D5284600F0D9F90CE0780302D544F401
:10117000004407E0380302D544F4803402E02846F6
:1011800000F0CAF9300707D55FEACB6004D52968BB
:10119000102044F40074C86070074FF0080707D5AA
:1011A0005FEA0B7004D52868C760284600F05EF936
:1011B000B00706D52868C068800702D0284600F02E
:1011C00057F9700607D55FEACA6004D52968102070
:1011D00044F480640861B00607D55FEA0A7004D55C
:1011E00028680761284600F063F9F00606D52868EC
:1011F0000069800702D0284600F05BF9B00308D5EB
:101200005FEAC96005D5296810204860284600F0CB
:1012100051F9F00307D55FEA097004D528684760E3
:10122000284600F07BF9300446D55FEA497040D586
:10123000F00504D55FEAC87001D044F00104B005A0
:1012400004D55FEA887001D544F00204700504D526
:101250005FEA487001D544F00404300529D518F040
:10126000700F26D008F07000402815D006DC10283A
:1012700009D020280AD0302816D10AE050280ED0F4
:10128000602811D10EE044F008040DE044F0100491
:101290000AE044F0200407E044F0400404E044F095
:1012A000800401E044F480742868816921F07001B1
:1012B0008161296804204860002C05D0686A2043B9
:1012C00068622846FFF789FEBDE8F09F70B504000C
:1012D00003D094F8200010B104E0012070BD204636
:1012E00000F082F82068016841F00101016000F01F
:1012F00029FB0546052604E000F024FB401B0A28D4
:1013000011D820684068C007F6D02068016821F035
:101310000201016000F016FB05460BE000F012FB35
:10132000401B0A2806D9606A40F40030606284F8E5
:101330002060D2E7206840688007EFD4207E012833
:10134000206801683DD021F080010160607E0128A5
:101350002068016838D021F040010160A07E01289A
:101360002068016833D021F020010160E07E01286F
:10137000206801682ED041F010010160207F012813
:101380002068016829D021F008010160607F0128F0
:101390002068016824D021F004010160D4E9020131
:1013A0000843D4E90412114308436168491E084305
:1013B0002168C86100206062012084F820000020BC
:1013C00070BD41F08001C0E741F04001C5E741F048
:1013D0002001CAE721F01001CFE741F00801D4E76E
:1013E00041F00401D9E7000070B586B000240094F4
:1013F0000194029403940068194988422DD1194838
:10140000C16941F00071C161C16901F000710491CD
:10141000816941F0040181618069134E00F004008C
:1014200004904FF4805000900220032501906946FB
:101430000395304600F096F9F014CDE900046946B2
:101440003046CDE9024500F08DF900221146142006
:1014500000F0E4FA142000F0D3FA06B070BD0000EA
:101460000064004000100240000801407047000086
:1014700000B50D4A016889B0914213D107AB6A46A5
:101480000021FFF7ABFD002007AA084903E0135C29
:101490000B54401CC0B2049B8342F8D8034901207E
:1014A000491E087009B000BD00640040090000201A
:1014B000704770477047000070B5044690F82000F0
:1014C000012804D0606A40F40020606218E0022025
:1014D00084F820002068016821F00101016000F01B
:1014E00031FA05460EE000BF00F02CFA401B0A2836
:1014F00008D9606A40F400306062052084F820005A
:10150000012070BD20684068C007EDD1606270BDE9
:1015100070477047704770477047704770470000CA
:101520002DE9F05FC16B0C6801680B68D0F840C012
:10153000042202FA0CF2494DDFF824A1494E4A4F29
:10154000DFF828B1DFF828E122422CD05A072AD54B
:101550000A68920603D40A6822F004020A6001684D
:10156000A94201D1042219E0514501D1402215E0E0
:10157000B14202D14FF4806210E0B94202D14FF47F
:1015800080420BE0594502D14FF4802206E07145BC
:1015900002D14FF4800201E04FF080622F490839F8
:1015A0004A60C16A3BE04FF0020808FA0CF818EAFA
:1015B000040F4FF000094FF0010235D05FEA837845
:1015C00032D50B689B0605D40B6823F00A030B6029
:1015D00080F821200168A94201D1022219E0514579
:1015E00001D1202215E0B14202D14FF4007210E087
:1015F000B94202D14FF400520BE0594502D14FF4E9
:10160000003206E0714502D14FF4001201E04FF0C4
:101610000072124908394A6080F82090816A0029D6
:101620001AD0BDE8F05F0847082505FA0CF52542F9
:1016300012D01B0710D50B6823F00E030B6090F837
:101640004010C36B02FA01F15960826380F82120D7
:1016500080F82090016BE2E7BDE8F09F08000240AF
:101660001C0002403000024044000240580002408A
:101670006C00024030B528B308C81349142219443D
:10168000B1FBF2F18900C163104981630221417706
:101690001A6843F6F0718A43D0E900142143D0E977
:1016A00002452C4321430469214344692143846951
:1016B00021431143196000214163012242770177E0
:1016C000084630BD012030BDF8FFFDBF00000240DC
:1016D00070B5044690F82000002501280CD00120A8
:1016E00084F8200094F821600020012E06D084F8B0
:1016F00020000225284670BD022070BD022684F815
:101700002160A0632068066826F001060660204676
:10171000FFF7E4F9E06A00282068016802D041F090
:101720000E0106E021F0040101602068016841F02B
:101730000A0101602068016841F001010160D9E7F8
:1017400070B5044600F0FEF80546601C02D004485F
:101750000078044400F0F6F8401BA042FAD370BDB4
:10176000140000202DE9F84FDFF8B8910024A9F10A
:10177000040B23460F2709F1040AABF1040EC9E05C
:101780000125A5402A40AA427DD1674ED1F804C068
:10179000ACEB0608B44532D014DCBCF1030F3AD0F0
:1017A00009DCBCF1000F2AD0BCF1010F1CD0BCF148
:1017B000020F31D11DE0BCF1110F17D0BCF1120F97
:1017C0002AD119E0B8F5881F19D006DCB8F5803F9A
:1017D00015D0B8F5801F1FD111E0B8F5001F0ED04D
:1017E000B8F5041F18D10AE0CB6815E0CB681B1DC3
:1017F00012E0CB6808330FE0CB680C330CE08B6849
:101800002BB1012B4FF0080303D0456104E0042302
:1018100002E0056100E00023FF2A01D8064601E04E
:1018200000F104064FEA840501D9A5F12005D6F898
:10183000008007FA05FC28EA0C0803FA05F548EAD7
:101840000508C6F800804D68ED0062D5374DAE69D9
:1018500046F00106AE61AD6924F0030605F001050E
:101860000095334D06EB050CDCF80850A607360F43
:1018700007FA06F825EA0805DFF8B880404503D1E5
:101880004FF0000817E044E0DFF8AC80404502D19B
:101890004FF001080FE0DFF8A480404502D14FF07F
:1018A000020808E0DFF89880404502D14FF00308B5
:1018B00001E04FF0040808FA06F848EA0508CCF8F9
:1018C00008804D68D9F80060ED024D4601D51643F9
:1018D00000E096432E604D68DAF80060AD02554690
:1018E00001D5164300E096432E604D68DBF800609A
:1018F000AD035D4601D5164300E096432E604D686A
:10190000DEF80060ED03754601D5164300E096430E
:101910002E60641C0D682A46E5407FF431AFBDE8B7
:10192000F88F000008040140000011100010024070
:101930000000014000080140000C0140001001407F
:101940000014014001488068704700001400002026
:1019500002488168027811448160704714000020B9
:10196000074810B5016841F010010160032000F044
:1019700075F80F2000F006F800F024F8002010BDE4
:101980000020024070B50D4D04464FF47A7128785E
:10199000B1FBF0F00A490968B1FBF0F000F0DCFAA5
:1019A00048B9102C07D200222146501E00F036F80C
:1019B00000206C6070BD012070BD0000140000208C
:1019C000200000200C4808B5816941F001018161C7
:1019D000816901F001010091C16941F08051C1614B
:1019E000C06900F0805000900448416821F0E06137
:1019F00041F00071416008BD00100240000001404C
:101A0000002809DB00F01F020121914040098000FD
:101A100000F1E020C0F8001170470000F0B40E4B58
:101A20001B680C46C3F30223C3F10705042D00D93C
:101A30000425191D072901D2002300E0DB1E012621
:101A400006FA05F1491E214099409E40761E164037
:101A50003143F0BC01F016B80CED00E0064900F08F
:101A6000070208684FF6FF03184040EA0220034AC5
:101A700010430860704700000CED00E00000FA051C
:101A80002DE9F0470F46050061D0434E306800F065
:101A90000700B84209D2306820F0070038433060B0
:101AA000306800F00700B84251D128683B4C8107EC
:101AB00012D5400703D5606840F4E0606060287884
:101AC000000703D5606840F4605060606068A968F2
:101AD00020F0F000084360602878C00728D06868CC
:101AE000012810D02168022810D0890700292EDA99
:101AF000616821F0030101436160FFF723FF804625
:101B000041F288390DE021688903EFE78901EDE7AB
:101B1000FFF718FFA0EB0801494502D90320BDE8F3
:101B2000F0876068696800F00C00B0EB810FEFD1BE
:101B3000306800F00700B8420BD9306820F0070089
:101B400038433060306800F00700B84201D001200F
:101B5000E5E72878400705D56068E96820F4E0608B
:101B6000084360602878000706D56068296920F47A
:101B7000605040EAC100606000F038F86168084ACF
:101B8000C1F30311515CC84006490860064800686B
:101B9000FFF7F8FE0020C2E70020024000100240DC
:101BA0005236000820000020180000200448054993
:101BB00000684968044AC1F30221515CC84070477B
:101BC0002000002000100240623600080448054949
:101BD00000684968044AC1F3C221515CC84070479B
:101BE0002000002000100240623600080E4A5168B2
:101BF0000E4801F00C03042B11D0082B0FD10C4818
:101C0000C1F38343C903C05C0AD55168084AC1F3D4
:101C10004041921E515C054A5043B0FBF1F07047C1
:101C200004494843704700000010024000127A0047
:101C30004236000800093D002DE9F84F040070D03D
:101C40002078C04DC00749D06868C0F381000128E2
:101C500007D06868C0F38100022809D16868C00312
:101C600006D52868800339D560680028E7D035E0BC
:101C70006068B0F5803F0BD010B1B0F5A02F11D047
:101C8000286820F480302860286820F4802002E052
:101C9000286840F480302860606890B1FFF752FEF9
:101CA00006460AE0286840F480202860F0E700BF7C
:101CB000FFF748FE801B642873D828688003F7D597
:101CC0000CE0FFF73FFE064605E000BFFFF73AFED7
:101CD000801B6428F0D828688003F7D420789A4EB7
:101CE00080074FF001094FF0000839D5686810F0FF
:101CF0000C0F07D06868C0F38100022809D168681A
:101D0000C00306D42868800714D52069012808D1AB
:101D100010E02069B0B1C6F80090FFF713FE074647
:101D200005E00AE1FFF70EFEC01B0228C4D82868B0
:101D30008007F7D52868616920F0F80040EAC10003
:101D400028600DE0C6F80080FFF7FCFD074604E0C0
:101D5000FFF7F8FDC01B022823D828688007F7D4B6
:101D6000207800072CD57948A169D9B1C0F8009036
:101D7000FFF7E8FD074604E0FFF7E4FDC01B02287B
:101D80000FD8686A8007F7D571484FF4FA51006898
:101D9000B0FBF1F0009000BF0098411E0091FAD214
:101DA0000EE080E0C0F80080FFF7CCFD074604E0BD
:101DB000FFF7C8FDC01B022875D8686A8007F7D4F2
:101DC0002078400760D5E8690027C00008D4E8699A
:101DD00040F08050E861E869012700F080500090F1
:101DE0005C480168C90513D40168834641F48071D9
:101DF0000160FFF7A7FD824606E000BFFFF7A2FDE6
:101E0000A0EB0A0064284ED8DBF80000C005F5D529
:101E1000E06801280AD008B1052813D0286A20F00C
:101E200001002862286A20F0040002E0286A40F0DD
:101E300001002862E06841F2883B98B1FFF782FD1B
:101E400082460BE0286A40F004002862EEE700BFFB
:101E5000FFF778FDA0EB0A0159455AD8286A800798
:101E6000F6D50CE0FFF76EFD824605E0FFF76AFD50
:101E7000A0EB0A0159454CD8286A8007F6D41FB157
:101E8000E86920F08050E861E06988B36968C1F3CF
:101E90008101022944D00228C6F8608004D0FFF7EF
:101EA00051FD044638E034E0FFF74CFD074604E0FE
:101EB000FFF748FDC01B02282BD828688001F7D403
:101EC000206AB0F5803F05D16868A16820F4003031
:101ED00008436860D4E908010843696821F4741173
:101EE00008436860C6F86090FFF72CFD044606E0E2
:101EF00025E000BFFFF726FD001B022809D828684F
:101F00008001F7D51BE000BFFFF71CFD001B022876
:101F100002D90320BDE8F88F28688001F4D40EE0D0
:101F20000128F7D06868226A00F48031914204D118
:101F3000616A00F47010884201D00120EAE70020B5
:101F4000E8E70000001002400000424280044242E4
:101F5000200000200070004010B5401EB0F1807FCE
:101F600001D3012010BD4FF0E02460610F21601704
:101F700000F088FD0020A06107202061002010BD36
:101F800070B590F83C20012A26D0012480F83C400E
:101F9000022280F83D2003685A689D6822F070068E
:101FA0000A6832435A600D4B02689A4208D0B2F177
:101FB000804F05D00A4B9A4202D00A4B9A4204D174
:101FC000496825F080031943916080F83D40002165
:101FD00080F83C10084670BD022070BD002C014006
:101FE000000400400008004000B585B000210091C9
:101FF0000191029103910068B0F1804F10D109481E
:10200000816941F0040181618069694600F0040042
:10201000049002200090019003900348FFF7A2FB78
:1020200005B000BD001002400008014070B5044634
:1020300090F83C0000260D4601280FD0012084F8BE
:102040003C006AB1042A1DD0082A2FD00C2A3FD0A8
:102050000126002084F83C00304670BD022070BD8F
:10206000206800F097FB2068816941F008018161D8
:102070002068816921F004018161206881692A69F1
:10208000114311E0206800F0ADFB2068816941F444
:10209000006181612068816921F48061816120682B
:1020A00081692A6941EA02218161D2E7206800F052
:1020B000C5FB2068C16941F00801C1612068C169A0
:1020C00021F00401C1612068C1692A69114311E04E
:1020D000206800F0DFFB2068C16941F40061C16144
:1020E0002068C16921F48061C1612068C1692A69E1
:1020F00041EA0221C161ACE710B5040003D094F8B5
:102100003D0010B107E0012010BD002084F83C0024
:10211000204600F01FF8022084F83D00211D2068B1
:1021200000F0EEFA012084F8460084F83E0084F8BE
:102130003F0084F8400084F8410084F8420084F8AD
:10214000430084F8440084F8450084F83D000020F2
:1021500010BD000008B50068B0F1804F08D10548F7
:10216000C16941F00101C161C06900F00100009046
:1021700008BD00000010024010B50446022249B11B
:1021800004290ED0082913D094F84100012816D054
:10219000012010BD94F83E000128F9D184F83E20BA
:1021A0000FE094F83F000128F2D184F83F2008E0C6
:1021B00094F840000128EBD184F8402001E084F835
:1021C00041200122206800F0D7FA0F492068884298
:1021D00003D1426C42F4004242642068884208D035
:1021E000B0F1804F05D00949884202D008498842A1
:1021F00004D1816801F00701062903D0016841F08C
:1022000001010160002010BD002C014000040040CD
:102210000008004070B5040004D094F84100002587
:1022200010B106E0012070BD84F84050204600F057
:1022300023F8242084F841002068C16821F400516B
:10224000C160204600F070FB2068016921F49041D4
:1022500001612068416921F02A0141612068C1685B
:1022600041F40051C1606564202084F8410084F885
:1022700042006563002070BD30B585B00024009435
:102280000194029403940068184988422CD118489C
:10229000816941F480418161816901F48041049147
:1022A000816941F0040181618069124D00F00400F0
:1022B00004904FF4007000900220019003200390DE
:1022C00069462846FFF74EFA2815CDE9000469460D
:1022D00028460294FFF746FA002211462520FFF710
:1022E0009DFB2520FFF78CFB05B030BD0038014079
:1022F00000100240000801402DE9F843044690F820
:102300004100984616460D46202802D00220BDE81E
:10231000F88385B17EB100206064212084F84100FB
:10232000FFF710FBA6848146E684A0682027B0F55D
:10233000805F02D003E00120E9E7206910B12E465A
:1023400000250EE000260CE08021204600F048FB2E
:10235000A8B9C6B116F8010B21684860E08C401E90
:10236000E084E08C4B464FF00002CDF8008000285E
:10237000EAD14FF04001204600F032FB40B184F832
:1023800041700320C3E735F8020BC0F30800E3E710
:1023900084F841700020BAE7FEE700003EB5002453
:1023A00011480094019402940E4984600160012553
:1023B0000573047505614FF460214460C161FEF747
:1023C00027FC08B1FEF7A0FB0620CDE90005694611
:1023D00002940548FEF79AFB002801D0FEF794FB13
:1023E0003EBD0000002401409C0000200F4810B5B5
:1023F0000D4901600621416000214FF4E022816017
:10240000C0E903124FF400124261017641768176F1
:10241000C17601774177FEF759FF002803D0BDE868
:102420001040FEF771BB10BD006400402C0000207E
:10243000094808B5416941F0010141614069002244
:1024400000F00100009011460B20FFF7E7FABDE80D
:1024500008400B20FFF7D4BA001002400D4808B521
:10246000816941F010018161816901F010010091E1
:10247000816941F020018161816901F020010091B1
:10248000816941F004018161806900F004000090DD
:1024900008BD00000010024010B58AB00024079467
:1024A0001C2168460894FDF754FE16484FF0804101
:1024B00001604721C0E9011440F2E731C0E903148B
:1024C0008461FFF719FE08B1FEF71EFB079407A908
:1024D0000C480894FFF754FD08B1FEF715FB602087
:1024E000CDE9000402940422694606480494FFF7EB
:1024F0009DFD08B1FEF708FB0248FFF775FD0AB025
:1025000010BD0000100100200C4810B50A49016000
:102510004FF4E1314160002181600C22C160C0E9CB
:1025200004128161C161FFF775FE002803D0BDE888
:102530001040FEF7E9BA10BD0038014054000020F9
:10254000FEE7FEE770B540F6FF71F8B1884200D3B0
:10255000481EFDF7D1FE1E4C2146FDF75DFE1D49CC
:10256000FDF78CFE054601462046FDF74FFE1A4C4E
:10257000064621462846FDF74FFE3146FDF77EFE12
:102580001649174A884203DA084604E00120E0E7CA
:10259000904200DD10462146FDF770FE00F00AFF74
:1025A0001049FDF739FE1049FDF7DEFD01464FF0F9
:1025B0007E50FDF763FE0D49FDF728FE0C4A0D49DC
:1025C000904201D9104670BD8842FCDD084670BDBE
:1025D0003333534000F07F4500401C460000C842A2
:1025E000005043482CBB84390FCF5B3B3393884367
:1025F0000000A0C10000A0422DE9F0410A460446B7
:1026000001691046FDF702FE054629462068FDF7E0
:1026100003FE804629466069FDF7A6FD1749606103
:102620000E46FDF7A5FE00D2666161696068FDF7A0
:10263000F3FD07462846E168FDF7E8FD0146A0687E
:10264000FDF7EAFD064639464046FDF78DFD314669
:10265000FDF78AFDE5600646A169FDF789FE01D216
:10266000A06905E03046E169FDF778FE04D2E06933
:10267000BDE8F041FDF745BE3046F9E70000FA43FA
:1026800010B5029C80E80E000021C160016141612B
:10269000C0E9064110BD70477047FFF759B930B522
:1026A0008FB028216846FDF754FD14210AA8FDF7D4
:1026B00050FD01210804CDE90010002402940225F8
:1026C0000491CDE907504FF4E01009906846FFF7F8
:1026D000B3FA08B172B6FEE70F20CDE90A054FF450
:1026E0008060CDE90C4002210AA80E94FFF7C8F9DA
:1026F000002801D072B6FEE70FB030BD7047000071
:10270000F0B50268194B1A4C1A4D4FF080479842A9
:1027100005D0B84203D0A04201D0A84203D122F094
:1027200070064A683243984205D0B84203D0A042AE
:1027300001D0A84203D122F44074CA6822434C69F4
:1027400022F08002224302608A68C2620A688262C2
:10275000984201D109690163012141610169C907F9
:1027600003D0016921F001010161F0BD002C01409D
:10277000000400400008004010B501F01F030121D3
:10278000046A99408C430462016A9A4011430162D1
:1027900010BD000030B5036A026A22F00102026235
:1027A0004268846924F073050C682C4323F0020509
:1027B0008B682B430A4DA8420BD123F00805CB6848
:1027C00022F440722B434D6923F0040315438A69B8
:1027D0002A434260846149684163036230BD00005E
:1027E000002C014030B5026A036A23F01003036233
:1027F000436884690D6824F4E64444EA05248D683E
:1028000022F0200242EA05120B4DA8420ED1CD68FB
:1028100022F0800242EA05124D6923F4406343EA44
:1028200085038D6922F0400243EA85034360846199
:1028300049688163026230BD002C014030B5036AF3
:10284000026A22F4807202624268C46923F400734F
:1028500024F073050C682C438D6843EA05230C4D66
:10286000A8420ED1CD6823F4006343EA05234D69E5
:1028700022F4405242EA05128D6923F4806342EA51
:1028800005124260C4614968C163036230BD000043
:10289000002C014030B5046A026A22F480520262C0
:1028A0004268C3690D6823F4E64343EA05238D6853
:1028B00024F4005444EA0534064DA84204D14D697D
:1028C00022F4804242EA85124260C3614968016491
:1028D000046230BD002C014001680C3151E8002F2A
:1028E00022F4907241E80023002BF5D101681431E5
:1028F00051E8002F22F0010241E80023002BF5D11E
:10290000016B012909D101680C3151E8002F22F037
:10291000100241E80023002BF5D1202180F842105D
:10292000002101637047000070B50446006801692A
:10293000E26821F44051114301612169A068084314
:10294000616908432168CA6841F20C639A430243F3
:10295000CA6020684169A26921F440711143416154
:102960001E492068884202D1FFF730F901E0FFF7E5
:102970001DF900EBC00101EB0012606864218000CA
:10298000B2FBF0F3B3FBF1F36FF018067343B2FB45
:10299000F0F5B2FBF0F605EB8305322303EB0515EA
:1029A000B5FBF1F5B6FBF1F605F0F00505EB061504
:1029B000B2FBF0F6B2FBF0F0B0FBF1F06FF01802F2
:1029C000504306EB800003EB0010B0FBF1F02168F0
:1029D00000F00F002844886070BD000000380140FE
:1029E0002DE9F843984617460D460446089E24E014
:1029F000701C22D0FEF7A6FFA0EB0800B0421AD848
:102A0000CEB12068C168490717D5802D15D0402D5B
:102A100013D00168C94309070FD401680025406835
:102A200000902046FFF758FF0820606484F840506B
:102A30000120BDE8F8830320FBE72068006835EA41
:102A4000000004D00020B842D2D00020F1E70120DD
:102A5000F9E700000148FEF73BBB00002C00002016
:102A6000FEE700000FB4054B10B503A9044A029815
:102A700000F0FCF810BC5DF814FB00009D3300086A
:102A8000240000200907090E002804DB00F1E020E3
:102A900080F80014704700F00F0000F1E02080F88B
:102AA000141D704700214FF07E50FDF7E7BB012158
:102AB000FDF7E6BC00210846FDF7E0BB02E008C8D0
:102AC000121F08C1002AFAD170477047002001E0A8
:102AD00001C1121F002AFBD17047000001490860A4
:102AE00070470000280000202DE9FF5F82B0002120
:102AF000DDE90430020DDDF840B0034318D044F6A0
:102B00001050A2F2FF3242431514119801281FD031
:102B1000A5EB0B00401C5FEA000A4FF000064E4F89
:102B2000DFF83891B046504615D5CAF1000413E0DD
:102B3000119801244AA3012801D16FEA0B010298E0
:102B4000119AC0E90031C0E9024206B0BDE8F09F29
:102B5000CBF10000DFE704460021404A491842EB70
:102B60000450CDE9001012E0E00707D032463B46A2
:102B700040464946FDF737FD8046894632463B468A
:102B800010461946FDF72FFD06460F466410002C2F
:102B9000EAD1DDE90401DDE90023BAF1000F06DA2C
:102BA000FDF721FD42464B46FDF71DFD05E0FDF713
:102BB0008CFD42464B46FDF788FD04460E4600223A
:102BC000284BFDF713FE03D84FF0FF30014607E016
:102BD0000022254B20463146FDF75EFCFDF7EDFD5A
:102BE000102409E0002C0ADB0A220023FDF7E0FB99
:102BF000039B30321A55641E50EA0102F2D1641C64
:102C0000039AC4F111031444119A012A03D001223A
:102C100008430DD10AE0084304D000204FF0110B07
:102C2000119072E7A3EB0B056D1E0DE05B4504DD13
:102C30004FF0000205F1010504E003DA4FF0000255
:102C4000A5F10105002AECD002981199C0E90231E2
:102C5000C0E9004579E70000000014400000F03FA3
:102C6000300000000000F0430000E03F2DE9FF4F7E
:102C700095B09B468946064600250FE2252877D168
:102C800000242746F84A0121059400E0044316F881
:102C9000013F203B01FA03F01042F7D130782A2897
:102CA00011D06FF02F033078A0F13002092A16D826
:102CB000059A44F0020402EB820203EB4202104444
:102CC000761C0590EFE759F8042B0592002A03DAE9
:102CD000504244F40054059044F00204761C3078CD
:102CE0002E2816D116F8010F44F004042A280DD01E
:102CF0006FF02F023078A0F13003092B09D807EBD1
:102D0000870302EB4303C718761CF3E759F8047BEB
:102D1000761C30786C280FD006DC4C2817D0682839
:102D20000DD06A2814D104E0742810D07A280FD16D
:102D30000DE044F400140AE044F4801401E044F48B
:102D400040147278824202D104F58014761C761CFD
:102D5000307866280BD013DC582877D009DC00289F
:102D600075D04528F6D04628F4D047281AD19DE1E1
:102D700018E0632835D0642879D0652812D195E110
:102D8000702873D008DC6728F1D069286FD06E28CE
:102D90000DD06F2806D1B5E073282CD0752875D0DA
:102DA000782874D05A46179990476D1C75E1C4F382
:102DB0000250022809D003280DD0D9F800100428A9
:102DC0000DD00D6009F1040967E1D9F80010EA1788
:102DD000C1E90052F6E7D9F800100D80F2E70D7056
:102DE000F0E719F8041B8DF8001000208DF80100A1
:102DF000EA46012003E059F804AB4FF0FF306107C9
:102E00004FF0000102D40DE008F101018846B942FB
:102E10000FDA8045F8DB1AF808100029F4D108E031
:102E200008F1010188468142FADB1AF808100029EE
:102E3000F6D105985B46A0EB080721463846179A5D
:102E400000F094FA284400EB080507E04DE029E182
:102E50000DE01AF8010B5A4617999047B8F101088E
:102E6000F7D25B4621463846179A13E142E00A2220
:102E70000092C4F302524FF0000A022A08D059F817
:102E800004CB032A4FEAEC710AD00DE029E02AE0D6
:102E900009F1070121F00702F2E802C1914609E0B9
:102EA0000FFA8CFC4FEAEC71042A03D14FFA8CFC28
:102EB0004FEAEC71002907DA0A460021DCF1000C28
:102EC00061EB02012D2202E0220504D52B228DF8B0
:102ED0000420012203E0E20701D02022F7E7904618
:102EE00059E00A2102E010220DE010214FF0000A03
:102EF00000910BE010224FF0000A44F00404082770
:102F0000009203E008224FF0000A0092C4F302523C
:102F1000022A05D059F804CB0021032A08D009E081
:102F200009F1070121F00702F2E802C1914605E02C
:102F30001FFA8CFC042A01D10CF0FF0C4FF00008A2
:102F4000220728D5702806D0009B83F0100353EA8F
:102F50000A0305D00EE040228DF80420012208E08B
:102F60005CEA010206D030228DF804208DF80500BD
:102F700002229046009B83F0080353EA0A030AD119
:102F80005CEA010201D1620705D530228DF80420E8
:102F90004FF001087F1E582804D034A003900EA8DB
:102FA00002900DE036A0F9E753466046009AFDF71F
:102FB000FFF984460398825C0298401E02900270DA
:102FC0005CEA0100F0D1029806A9081A00F1200A73
:102FD000600702D524F4803400E00127574502DD64
:102FE000A7EB0A0000E0002000EB0A010090059822
:102FF0004144401A0590E00306D45B462146179AE7
:10300000059800F0B3F90544002706E001A85A46E8
:10301000C05D179990476D1C7F1C4745F6DBE003A8
:103020000CD55B462146179A059800F09FF9054498
:1030300004E030205A46179990476D1C0099481EAD
:1030400000900029F5DC08E0029802995A460078C1
:10305000491C0291179990476D1CBAF10001AAF121
:10306000010AF1DC65E1000009280100303132334A
:1030700034353637383961626364656600000000B4
:10308000303132333435363738394142434445469E
:103090000000000000F058F90544761C3078002844
:1030A0007FF4ECAD19B02846BDE8F08F620700D47C
:1030B000062709F1070222F0070CFCE80223E1468B
:1030C00003F000485FEA080C02D00FF2702C0DE00C
:1030D0005FEA045C02D50FF2682C07E05FEAC47C6B
:1030E00002D00FF2602C01E0AFF2700C4FF0FF380D
:1030F00023F00043CDF850C065280CD006DC4528ED
:1031000009D046281DD047283DD13DE0662818D07B
:1031100067287ED138E00021112F01DB112000E06B
:10312000781CCDE9000106A90EA8FFF7DDFCDDE95A
:103130000F010E9A03910021009207F1010A0491F8
:103140004DE04FF000400097CDE9011006A90EA810
:10315000FFF7CAFCDDE90F0203920E9B11990022D2
:10316000DDF80CA00093049211B9791C00EB010A60
:10317000B7EB0A0004D4C0F1FF3007F1010A049054
:10318000AAEB0700019044E0012F00DA012700219B
:10319000112F01DD112000E03846CDE9000106A91C
:1031A0000EA8FFF7A1FCDDE90F010E9A03910021A3
:1031B00004910092BA4621070CD40399514500DAD4
:1031C0008A46BAF1010F05DD009AAAF10101515CAE
:1031D000302908D0B84202DA10F1040F06DA0121D2
:1031E000CDE9011015E0AAF10101E9E7002805DCAD
:1031F000049901440491AAEB000102E0411C5145ED
:1032000000DD8A460499401A401C01904FF00040AE
:103210000290200704D40198504501DBCDF80480CA
:1032200000208DF84F0002980DF14F07B0F1004FCC
:1032300025D02B200E9002984FF0020800280CDABF
:10324000404202902D200E9007E00A210298FDF7DF
:1032500099F83031029007F8011DB8F10001A8F18A
:103260000108F2DC02980028EFD1791E0E98087050
:10327000307800F0200040F0450007F8020D12A859
:10328000C01B00F107081498007800B1012000EB82
:103290000A01019801EBE07105984144401A401E73
:1032A0000590E00306D45B462146179A059800F086
:1032B0005DF805441498007818B15A46179990475C
:1032C0006D1CE00324D55B462146179A059800F053
:1032D0004DF805441CE00498002807DBDDE90301F4
:1032E000884203DD0098405C179901E0179930206F
:1032F0005A469047049805F10105401C0490019836
:10330000401E019004D12E205A46179990476D1CFB
:10331000BAF10001AAF1010ADDDC05E017F8010BA2
:103320005A46179990476D1CB8F10001A8F10108A1
:10333000F4DC5B462146179A0598ABE62D000000A9
:103340002B000000200000002DE9F041044600257C
:103350001E461746880404D405E039462020B047AD
:103360006D1C641EF9D52846BDE8F0812DE9F041B9
:10337000044600251E469046C80301D5302700E0CC
:103380002027880404D505E041463846B0476D1C27
:10339000641EF9D52846BDE8F081000013B54FF052
:1033A000FF33012269460248FEF7A6FF00981CBDC4
:1033B000540000202DE9F0410026A0F50001B1F1F4
:1033C000FE4F7DD200F500226FF07E0101EBE2514D
:1033D000C2F3025477184FF07E52A0EBC15602EBB5
:1033E000045557EA040047D029463046FCF7BCFE96
:1033F000804629463046FCF709FF4146FCF73EFF70
:1034000005460146FCF708FF80464549FCF704FFE6
:103410004449FCF7A9FE064641462846FCF7FCFE57
:103420003146FCF7F9FE06463846FDF7BDF907467A
:103430003D49FCF7F1FE3D49794451F82410FCF771
:1034400093FE3146FCF790FE064601212846FDF723
:1034500017F83146FCF788FE054638463449FCF734
:10346000DBFE3449794451F82410FCF77DFE2946EF
:10347000BDE8F041FCF778BE4FF07E513046FCF7D6
:10348000C5FE05462C49FCF7C7FE2C49FCF76CFE2F
:103490002946FCF7C1FE2A49FCF766FE2946FCF7DF
:1034A000BBFE6FF08241FCF75FFE044629460846EA
:1034B000FCF7B2FE2146FCF7AFFE0146284600E0CD
:1034C00003E0BDE8F041FCF74FBE4FF07F42B2EBA6
:1034D000400F03D2BDE8F041FFF7E9BAB0F1FF4F6A
:1034E00008BFBDE8F081B0F1004F06D90120FFF719
:1034F000F5FABDE8F041FFF7DDBA30F0004105D044
:103500006FF016061721FCF7BBFF5BE70220FFF701
:10351000E5FAFFF7C7FA80F00040BDE8F08100004F
:1035200066F1CC3EAAAA2A3FF4FD053850020000FD
:103530000070313F0402000021ED423E0A1180BEBE
:10354000C1ABAA3E8AB0FEF70BFAFFF7A8F8FEF768
:1035500085FFFEF76DFFFEF749FFFEF7D5FFFEF78B
:103560001DFFFEF799FF04212448FEF705FEFDF735
:1035700089FA012222492348FDF720FC22480068ED
:10358000016821F006010160204805902048009064
:103590000023204A204901A8FFF772F81FA0FFF777
:1035A00061FA164D164C2068FEF7CCFF606060682B
:1035B000FCF7C0FE02460B461CA0FFF753FA059924
:1035C0006068FCF7CBFE04D229680020886306906F
:1035D0000FE005996068FCF7CBFE0AD8616801A886
:1035E000FFF70AF80646014612A0FFF73BFA2868E3
:1035F00086633220FEF7A4F8D5E700001001002012
:10360000000000209C000020CC0000200000E041D1
:1036100000007A44CDCCCC3D0000C841E590AFE538
:103620008AA8E68890E58A9F0D0A000025302E3290
:10363000660D0A0070776D3A25640D0A00000000DF
:10364000010202030405060708090A0B0C0D0E0F00
:103650001010000000000000000001020304060733
:10366000080900000000010203040000000000003F
:103670000030F13D0070643E0000A33E0090CF3E5C
:103680000090F83E00400F3F00E0203F00000000A7
:1036900015B78337CDE37B380EE1C53860F6913836
:1036A000AF5F0F38E1BC3E3823F44739CC36000811
:1036B000000000202C000000BC2A0008F83600089A
:1036C0002C0000202C050000CC2A0008000000007F
:1036D00000000000000000000000000000000000EA
:1036E00001000000100000000000000000127A003D
:0836F0000000000000000000D2
:04000005080000ED02
:00000001FF
