:020000040800F2
:100000009004002001010008CB1200080D12000826
:10001000C912000899010008BD1400080000000082
:10002000000000000000000000000000CF120008E7
:10003000E901000800000000CD120008D1120008FC
:100040001B0100081B0100081B0100081B01000820
:100050001B0100081B0100081B0100081B01000810
:100060001B0100081B0100081B0100081B01000800
:100070001B0100081B0100081B0100081B010008F0
:100080001B0100081B0100081B0100081B010008E0
:10009000B11400081B0100081B0100081B01000827
:1000A0001B0100081B0100081B0100081B010008C0
:1000B0001B0100081B0100081B0100081B010008B0
:1000C0001B0100081B0100081B0100081B010008A0
:1000D0001B0100081B0100081B0100081B01000890
:1000E0001B0100081B0100081B010008DFF80CD0F1
:1000F00000F040F8004800478D16000890040020EA
:100100000648804706480047FEE7FEE7FEE7FEE7B1
:10011000FEE7FEE7FEE7FEE7FEE7FEE73313000833
:10012000ED000008D2B201E000F8012B491EFBD21D
:1001300070470022F6E710B513460A4604461946F2
:10014000FFF7F0FF204610BD30B50B4601460020FA
:100150002022012409E021FA02F59D4205D303FA89
:1001600002F5491B04FA02F52844151EA2F101020A
:10017000F1DC30BD064C074D06E0E06840F00103BD
:1001800094E8070098471034AC42F6D3FFF7B2FF6B
:100190001C1700083C170008FEE7000000B58BB0F4
:1001A00000200121CDE90601039005900090019007
:1001B00002900891049069460A4800F02BF808B1B3
:1001C00000F013F8074800F00BFB08B100F00DF841
:1001D0000221044800F00BF8002801D000F005F8D7
:1001E0000BB000BD20000020704772B6FEE790F80B
:1001F0002020012A07D0022A05D0416A41F480213B
:10020000416201207047006842690A434261002050
:100210007047000010B590F820300268012B07D01D
:10022000022B05D0416A41F480214162012010BDBA
:10023000D2F8000240F00100C2F80002087D00F090
:100240001F0301209840D2F81C328343C2F81C32AD
:10025000CB69B3B9D2F80C328343C2F80C328C8923
:100260004B6864F31F434C6902EBC404C4F840328A
:100270000C890B6864F31F434C6902EBC404C4F897
:100280004432CB69012B16D1D2F80C320343C2F8A9
:100290000C320C884B6864F31F434C6902EBC404B6
:1002A000C4F840320C89CB6864F31F434C6902EBFD
:1002B000C404C4F844328B69002BD2F804320FD046
:1002C00053EA0003C2F804320B69002BD2F814324F
:1002D00008D00343C2F81432096A012904D008E0A7
:1002E0008343EFE78343F5E7D2F81C120143C2F8DA
:1002F0001C12D2F8000220F00100C2F80002002017
:1003000010BD704770B590F82040012C05D0022C2C
:1003100003D0416A41F4802128E0046809B32469CC
:10032000A40720D04FF4D874056804EB01142D59AC
:1003300015F00405956005682D591AD0ED08556033
:1003400005682C5904F00204D4604FF4DA7405688F
:1003500004EB01142E5906F00F06082E0CD30825C5
:100360000DE0E468DCE7416A41F4001141620120DC
:1003700070BD6D0D1560E3E72D5905F00F05156192
:1003800005682D59C5F30725956105682C59240C7E
:1003900054614FF4DC72046802EB0112A4581C7023
:1003A0000468A458240A5C700468A458240C9C7047
:1003B0000468A258120EDA704FF4DE72046802EB81
:1003C0000112A4581C710468A458240A5C710468C2
:1003D000A458240C9C710468A258120EDA710068AB
:1003E00029B1016941F020010161002070BDC1689F
:1003F00041F02001C160F8E72DE9F05F0546006893
:1004000000244669D0F804908768D0F80CB0D0F882
:1004100010A0D0F81880F10748D0F90714D00121B6
:100420008160B80703D5284600F007FA0CE078078A
:1004300002D54FF4006407E0380702D54FF480542A
:1004400002E0284600F0F8F9F80516D529684FF4BF
:1004500080708860B80503D5284600F0F0F90CE0FC
:10046000780502D544F4005407E0380502D544F479
:10047000804402E0284600F0E1F9F80316D5296827
:100480004FF480308860B80303D5284600F0D9F9CE
:100490000CE0780302D544F4004407E0380302D5A9
:1004A00044F4803402E0284600F0CAF9300707D54A
:1004B0005FEACB6004D52968102044F40074C8605A
:1004C00070074FF0080707D55FEA0B7004D528685E
:1004D000C760284600F05EF9B00706D52868C068F6
:1004E000800702D0284600F057F9700607D55FEA6A
:1004F000CA6004D52968102044F480640861B006FD
:1005000007D55FEA0A7004D528680761284600F01D
:1005100063F9F00606D528680069800702D02846EE
:1005200000F05BF9B00308D55FEAC96005D529681A
:1005300010204860284600F051F9F00307D55FEA23
:10054000097004D528684760284600F07BF930041C
:1005500046D55FEA497040D5F00504D55FEAC8701A
:1005600001D044F00104B00504D55FEA887001D5DC
:1005700044F00204700504D55FEA487001D544F0E8
:100580000404300529D518F0700F26D008F070004B
:10059000402815D006DC102809D020280AD03028A1
:1005A00016D10AE050280ED0602811D10EE044F098
:1005B00008040DE044F010040AE044F0200407E0D1
:1005C00044F0400404E044F0800401E044F480740A
:1005D0002868816921F070018161296804204860E0
:1005E000002C05D0686A204368622846FFF789FE20
:1005F000BDE8F09F70B5040003D094F8200010B15E
:1006000004E0012070BD204600F082F820680168F7
:1006100041F00101016000F019FA0546052604E0E9
:1006200000F014FA401B0A2811D820684068C0075F
:10063000F6D02068016821F00201016000F006FA9E
:1006400005460BE000F002FA401B0A2806D9606A52
:1006500040F40030606284F82060D2E7206840688F
:100660008007EFD4207E0128206801683DD021F06A
:1006700080010160607E01282068016838D021F087
:1006800040010160A07E01282068016833D021F07C
:1006900020010160E07E0128206801682ED041F031
:1006A00010010160207F01282068016829D021F015
:1006B00008010160607F01282068016824D021F0D2
:1006C00004010160D4E902010843D4E90412114392
:1006D00008436168491E08432168C86100206062C0
:1006E000012084F82000002070BD41F08001C0E7A7
:1006F00041F04001C5E741F02001CAE721F01001B7
:10070000CFE741F00801D4E741F00401D9E7000048
:1007100070B586B00024009401940294039400689C
:10072000194988422DD11948C16941F00071C16150
:10073000C16901F000710491816941F00401816196
:100740008069134E00F0040004904FF48050009034
:1007500002200325019069460395304600F086F893
:10076000F014CDE9000469463046CDE9024500F0B9
:100770007DF800221146142000F0D4F9142000F076
:10078000C3F906B070BD00000064004000100240D4
:10079000000801407047000000B50D4A016889B0AB
:1007A000914213D107AB6A460021FFF7ABFD002051
:1007B00007AA084903E0135C0B54401CC0B2049B19
:1007C0008342F8D803490120491E087009B000BDD2
:1007D000006400400100002070477047704700002F
:1007E00070B5044690F82000012804D0606A40F4F7
:1007F0000020606218E0022084F820002068016870
:1008000021F00101016000F021F905460EE000BF72
:1008100000F01CF9401B0A2808D9606A40F4003037
:100820006062052084F82000012070BD20684068C7
:10083000C007EDD1606270BD704770477047704768
:10084000704770477047000070B5044600F0FEF82E
:100850000546601C02D004480078044400F0F6F815
:10086000401BA042FAD370BD0C0000202DE9F84FC8
:10087000DFF8B8910024A9F1040B23460F2709F1F2
:10088000040AABF1040EC9E00125A5402A40AA42A2
:100890007DD1674ED1F804C0ACEB0608B44532D028
:1008A00014DCBCF1030F3AD009DCBCF1000F2AD0F4
:1008B000BCF1010F1CD0BCF1020F31D11DE0BCF125
:1008C000110F17D0BCF1120F2AD119E0B8F5881F0B
:1008D00019D006DCB8F5803F15D0B8F5801F1FD1C0
:1008E00011E0B8F5001F0ED0B8F5041F18D10AE0CA
:1008F000CB6815E0CB681B1D12E0CB6808330FE016
:10090000CB680C330CE08B682BB1012B4FF0080344
:1009100003D0456104E0042302E0056100E0002308
:10092000FF2A01D8064601E000F104064FEA8405DB
:1009300001D9A5F12005D6F8008007FA05FC28EAC0
:100940000C0803FA05F548EA0508C6F800804D686A
:10095000ED0062D5374DAE6946F00106AE61AD6976
:1009600024F0030605F001050095334D06EB050C58
:10097000DCF80850A607360F07FA06F825EA08053E
:10098000DFF8B880404503D14FF0000817E044E09D
:10099000DFF8AC80404502D14FF001080FE0DFF8EE
:1009A000A480404502D14FF0020808E0DFF89880AB
:1009B000404502D14FF0030801E04FF0040808FA67
:1009C00006F848EA0508CCF808804D68D9F80060B8
:1009D000ED024D4601D5164300E096432E604D686A
:1009E000DAF80060AD02554601D5164300E09643A3
:1009F0002E604D68DBF80060AD035D4601D51643FF
:100A000000E096432E604D68DEF80060ED03754609
:100A100001D5164300E096432E60641C0D682A46FB
:100A2000E5407FF431AFBDE8F88F000008040140D5
:100A300000001110001002400000014000080140B9
:100A4000000C014000100140001401400148806882
:100A5000704700000C0000200248816802781144B1
:100A6000816070470C000020074810B5016841F014
:100A700010010160032000F075F80F2000F006F867
:100A800000F024F8002010BD0020024070B50D4D8C
:100A900004464FF47A712878B1FBF0F00A490968EE
:100AA000B1FBF0F000F0DCFA48B9102C07D20022BC
:100AB0002146501E00F036F800206C6070BD012009
:100AC00070BD00000C000020180000200C4808B584
:100AD000816941F001018161816901F001010091A9
:100AE000C16941F08051C161C06900F0805000903F
:100AF0000448416821F0E06141F00071416008BDA7
:100B00000010024000000140002809DB00F01F0235
:100B1000012191404009800000F1E020C0F800115F
:100B200070470000F0B40E4B1B680C46C3F3022361
:100B3000C3F10705042D00D90425191D072901D289
:100B4000002300E0DB1E012606FA05F1491E2140C4
:100B500099409E40761E16403143F0BC00F0C0BC68
:100B60000CED00E0064900F0070208684FF6FF03AD
:100B7000184040EA0220034A104308607047000012
:100B80000CED00E00000FA052DE9F0470F460500E6
:100B900061D0434E306800F00700B84209D2306897
:100BA00020F0070038433060306800F00700B8429A
:100BB00051D128683B4C810712D5400703D56068A6
:100BC00040F4E06060602878000703D5606840F476
:100BD000605060606068A96820F0F00008436060C1
:100BE0002878C00728D06868012810D0216802281A
:100BF00010D0890700292EDA616821F00301014332
:100C00006160FFF723FF804641F288390DE02168DB
:100C10008903EFE78901EDE7FFF718FFA0EB080173
:100C2000494502D90320BDE8F0876068696800F093
:100C30000C00B0EB810FEFD1306800F00700B84234
:100C40000BD9306820F0070038433060306800F07E
:100C50000700B84201D00120E5E72878400705D514
:100C60006068E96820F4E060084360602878000765
:100C700006D56068296920F4605040EAC1006060D0
:100C800000F038F86168084AC1F30311515CC840AC
:100C90000649086006480068FFF7F8FE0020C2E732
:100CA0000020024000100240021700081800002037
:100CB000100000200448054900684968044AC1F34F
:100CC0000221515CC840704718000020001002400B
:100CD000121700080448054900684968044AC1F32E
:100CE000C221515CC840704718000020001002402B
:100CF000121700080E4A51680E4801F00C03042B2D
:100D000011D0082B0FD10C48C1F38343C903C05C39
:100D10000AD55168084AC1F34041921E515C054A08
:100D20005043B0FBF1F0704704494843704700005E
:100D30000010024000127A00F216000800093D007F
:100D40002DE9F84F040070D02078C04DC00749D07D
:100D50006868C0F38100012807D06868C0F381008B
:100D6000022809D16868C00306D52868800339D5F0
:100D700060680028E7D035E06068B0F5803F0BD0B0
:100D800010B1B0F5A02F11D0286820F48030286071
:100D9000286820F4802002E0286840F48030286031
:100DA000606890B1FFF752FE06460AE0286840F4FA
:100DB00080202860F0E700BFFFF748FE801B642812
:100DC00073D828688003F7D50CE0FFF73FFE06468E
:100DD00005E000BFFFF73AFE801B6428F0D82868C2
:100DE0008003F7D420789A4E80074FF001094FF026
:100DF000000839D5686810F00C0F07D06868C0F398
:100E00008100022809D16868C00306D428688007D9
:100E100014D52069012808D110E02069B0B1C6F8C6
:100E20000090FFF713FE074605E00AE1FFF70EFE0C
:100E3000C01B0228C4D828688007F7D528686169D4
:100E400020F0F80040EAC10028600DE0C6F80080FC
:100E5000FFF7FCFD074604E0FFF7F8FDC01B022882
:100E600023D828688007F7D4207800072CD5794844
:100E7000A169D9B1C0F80090FFF7E8FD074604E08A
:100E8000FFF7E4FDC01B02280FD8686A8007F7D57A
:100E900071484FF4FA510068B0FBF1F0009000BFC8
:100EA0000098411E0091FAD20EE080E0C0F8008068
:100EB000FFF7CCFD074604E0FFF7C8FDC01B022882
:100EC00075D8686A8007F7D42078400760D5E8694C
:100ED0000027C00008D4E86940F08050E861E86964
:100EE000012700F0805000905C480168C90513D4C8
:100EF0000168834641F480710160FFF7A7FD8246D7
:100F000006E000BFFFF7A2FDA0EB0A0064284ED860
:100F1000DBF80000C005F5D5E06801280AD008B16B
:100F2000052813D0286A20F001002862286A20F0E2
:100F3000040002E0286A40F001002862E06841F203
:100F4000883B98B1FFF782FD82460BE0286A40F0AB
:100F500004002862EEE700BFFFF778FDA0EB0A016E
:100F600059455AD8286A8007F6D50CE0FFF76EFD80
:100F7000824605E0FFF76AFDA0EB0A0159454CD80F
:100F8000286A8007F6D41FB1E86920F08050E86134
:100F9000E06988B36968C1F38101022944D002285D
:100FA000C6F8608004D0FFF751FD044638E034E015
:100FB000FFF74CFD074604E0FFF748FDC01B022881
:100FC0002BD828688001F7D4206AB0F5803F05D17E
:100FD0006868A16820F4003008436860D4E908011B
:100FE0000843696821F4741108436860C6F860908A
:100FF000FFF72CFD044606E025E000BFFFF726FDC5
:10100000001B022809D828688001F7D51BE000BF23
:10101000FFF71CFD001B022802D90320BDE8F88F52
:1010200028688001F4D40EE00128F7D06868226AAD
:1010300000F48031914204D1616A00F4701088425A
:1010400001D00120EAE70020E8E70000001002409C
:10105000000042428004424218000020007000401C
:1010600010B5401EB0F1807F01D3012010BD4FF0BC
:10107000E02460610F21601700F032FA0020A061C7
:1010800007202061002010BD70B5040004D094F842
:101090004100002510B106E0012070BD84F84050E9
:1010A000204600F023F8242084F841002068C1681D
:1010B00021F40051C160204600F064F92068016904
:1010C00021F4904101612068416921F02A014161C8
:1010D0002068C16841F40051C1606564202084F833
:1010E000410084F842006563002070BD30B585B0D2
:1010F00000240094019402940394006818498842E3
:101100002CD11848816941F480418161816901F4E1
:1011100080410491816941F0040181618069124D2F
:1011200000F0040004904FF4007000900220019041
:101130000320039069462846FFF798FB2815CDE960
:101140000004694628460294FFF790FB00221146EE
:101150002520FFF7E7FC2520FFF7D6FC05B030BDC2
:101160000038014000100240000801402DE9F8431A
:10117000044690F84100984616460D46202802D0B5
:101180000220BDE8F88385B17EB100206064212093
:1011900084F84100FFF75AFCA6848146E684A068E3
:1011A0002027B0F5805F02D003E00120E9E7206945
:1011B00010B12E4600250EE000260CE080212046CE
:1011C00000F03CF9A8B9C6B116F8010B21684860D7
:1011D000E08C401EE084E08C4B464FF00002CDF8DE
:1011E00000800028EAD14FF04001204600F026F9A7
:1011F00040B184F841700320C3E735F8020BC0F317
:101200000800E3E784F841700020BAE7FEE7000039
:101210000F4810B50D4901600621416000214FF4CF
:10122000E0228160C0E903124FF4001242610176AE
:1012300041768176C17601774177FFF7DBF90028A7
:1012400003D0BDE81040FEF7D0BF10BD00640040E1
:10125000200000200D4808B5816941F0100181612E
:10126000816901F010010091816941F020018161E3
:10127000816901F020010091816941F004018161DF
:10128000806900F00400009008BD000000100240DA
:101290000C4810B50A4901604FF4E131416000216A
:1012A00081600C22C160C0E904128161C161FFF755
:1012B000EBFE002803D0BDE81040FEF796BF10BD3E
:1012C0000038014048000020FEE7FEE77047704705
:1012D000FFF7C2BB30B58FB028216846FEF729FF63
:1012E00014210AA8FEF725FF01210804CDE900100A
:1012F0000024029402250491CDE907504FF4E01038
:1013000009906846FFF71CFD08B172B6FEE70F2092
:10131000CDE90A054FF48060CDE90C4002210AA80E
:101320000E94FFF731FC002801D072B6FEE70FB033
:1013300030BD704701680C3151E8002F22F49072E3
:1013400041E80023002BF5D10168143151E8002F4A
:1013500022F0010241E80023002BF5D1016B0129A5
:1013600009D101680C3151E8002F22F0100241E848
:101370000023002BF5D1202180F8421000210163C9
:101380007047000070B5044600680169E26821F406
:101390004051114301612169A06808436169084314
:1013A0002168CA6841F20C639A430243CA6020680C
:1013B0004169A26921F44071114341611E492068CD
:1013C000884202D1FFF786FC01E0FFF773FC00EBD7
:1013D000C00101EB0012606864218000B2FBF0F3F1
:1013E000B3FBF1F36FF018067343B2FBF0F5B2FBF9
:1013F000F0F605EB8305322303EB0515B5FBF1F59C
:10140000B6FBF1F605F0F00505EB0615B2FBF0F6BC
:10141000B2FBF0F0B0FBF1F06FF01802504306EBB6
:10142000800003EB0010B0FBF1F0216800F00F002A
:101430002844886070BD0000003801402DE9F84361
:10144000984617460D460446089E24E0701C22D09C
:10145000FFF7FCFAA0EB0800B0421AD8CEB1206822
:10146000C168490717D5802D15D0402D13D00168CC
:10147000C94309070FD40168002540680090204641
:10148000FFF758FF0820606484F840500120BDE851
:10149000F8830320FBE72068006835EA000004D0E9
:1014A0000020B842D2D00020F1E70120F9E7000087
:1014B0000148FEF7A1BF000020000020FEE7000069
:1014C0000FB4054B10B503A9044A029800F028F8A0
:1014D00010BC5DF814FB0000751600081C0000200D
:1014E0000907090E002804DB00F1E02080F8001451
:1014F000704700F00F0000F1E02080F8141D7047E5
:1015000002E008C8121F08C1002AFAD170477047CC
:10151000002001E001C1121F002AFBD1704700002A
:101520002DE9FF4F89B09B460446002506E025289B
:101530000BD05A460B999047641C6D1C20780028EC
:10154000F5D10DB02846BDE8F08F0027B84601223E
:10155000474900E0074314F8013F203B02FA03F03B
:101560000842F7D120782E2819D114F8010F47F03E
:1015700004072A280ED06FF02F022078A0F1300146
:1015800009290CD808EB880102EB410100EB0108A6
:10159000641CF2E70A98641C50F8048B0A902078C7
:1015A0000028CED0642808D0692806D075281ED01F
:1015B0005A460B9990476D1C58E00A994FF00A095A
:1015C00001C90A91002802DA40422D2102E03905C2
:1015D00004D52B218DF82010012103E0F90704D058
:1015E0002021F7E78A4608AE0DE00021FAE70A99C4
:1015F0004FF00A0901C90A91F7E74946FEF7A4FD31
:10160000303106F8011D0028F7D1ADEB060000F1DE
:101610002009780701D44FF00108C84502DDA8EB86
:10162000090000E000208046002706E008A85A468E
:10163000C05D0B9990476D1C7F1C5745F6DB04E09D
:1016400030205A460B9990476D1CB8F10001A8F163
:101650000108F5DC05E016F8010B5A460B99904796
:101660006D1CB9F10001A9F10109F4DC641C65E706
:101670000928010013B54FF0FF33012269460248E3
:10168000FFF774FD00981CBD48000020FFF7ECF93F
:10169000FFF720FEFFF7DEFDFFF7BAFDFFF7F8FDCD
:1016A000FEF77CFD0AA0FFF70BFF0D4E0D4D4FF42A
:1016B0007A773078012807D10024295D0AA0FFF746
:1016C000FFFE641C082CF8DB3846FFF7BDF8F0E796
:1016D000E590AFE58AA8E68890E58A9F0D0A0000AC
:1016E000000000200100002025640D0A0000000019
:1016F000010202030405060708090A0B0C0D0E0F70
:1017000010100000000000000000010203040607A2
:101710000809000000000102030400003C17000853
:101720000000002020000000001500085C170008E1
:1017300020000020700400001015000800000000C8
:101740000000000000000000010000001000000088
:0C1750000000000000127A000000000001
:04000005080000ED02
:00000001FF
