:020000040800F2
:10000000980400209D0100084F1A0008911900086B
:100010004D1A00084B070008CB1C00080000000028
:10002000000000000000000000000000531A00085B
:10003000D907000800000000511A0008551A0008EE
:10004000B7010008B7010008B7010008B7010008B0
:10005000B7010008B7010008B7010008B7010008A0
:10006000B7010008B7010008B7010008B701000890
:10007000B7010008B7010008B7010008B701000880
:10008000B7010008B7010008B7010008B701000870
:100090004D070008B7010008B7010008B7010008C4
:1000A000B7010008B7010008B7010008B701000850
:1000B000B7010008B7010008B7010008B701000840
:1000C000B7010008B7010008B7010008B701000830
:1000D000B7010008B7010008B7010008B701000820
:1000E000B7010008B7010008B7010008B701000810
:1000F000B7010008B7010008B7010008B701000800
:10010000B7010008B7010008B7010008B7010008EF
:10011000B7010008B7010008B7010008B7010008DF
:10012000B7010008B7010008B7010008B7010008CF
:10013000B7010008B7010008B7010008B7010008BF
:10014000B7010008B7010008B7010008B7010008AF
:10015000B7010008B7010008B7010008B70100089F
:10016000B7010008B7010008B7010008B70100088F
:10017000B7010008B7010008B7010008000000003F
:10018000B7010008B7010008DFF80CD000F05CFAF6
:1001900000480047F92500089804002006488047D9
:1001A00006480047FEE7FEE7FEE7FEE7FEE7FEE75C
:1001B000FEE7FEE7FEE7FEE7ED1A0008890100080A
:1001C0002DE9F05F0546002092469B46884606468C
:1001D000814640241BE0284641464746224600F01F
:1001E0006AF853465A46C01A914110D31146184630
:1001F000224600F051F82D1A67EB01084F462246BF
:100200000120002100F048F817EB00094E41201EA4
:10021000A4F10104DFDC484631462A464346BDE8E6
:10022000F09FD2B201E000F8012B491EFBD27047CB
:100230000022F6E710B513460A4604461946FFF7B2
:10024000F0FF204610BD00F0004230F000400AD020
:10025000C10D01F56071C0F3160042EA0151C208F8
:1002600040071143704700200146704730B50B46E8
:10027000014600202022012409E021FA02F59D42D6
:1002800005D303FA02F5491B04FA02F52844151EAA
:10029000A2F10102F1DC30BD202A04DB203A00FA91
:1002A00002F1002070479140C2F1200320FA03F3CD
:1002B000194390407047202A04DB203A21FA02F0CB
:1002C0000021704721FA02F3D040C2F12002914090
:1002D0000843194670472DE9FE4F804681EA030026
:1002E000C00F0C46009021F0004123F00045B8EB10
:1002F0000200A94105D24046214690461C460B46C5
:10030000024623F00040104347D0270DC7F30A00F0
:10031000C3F30A510290401A019040286BDAC3F3EC
:10032000130040F4801B0098924620B10023D2EBCA
:10033000030A63EB0B0B01985946C0F1400250468B
:10034000FFF7AAFF06460D4650465946019A00F0AF
:100350008DF910EB08006141002487EA115284EA0C
:10036000E7731A4340D0009A62B3019A012A4FEA18
:10037000075215DC001B61EB02014FF0004202EA5C
:100380000752CDE90042001C41F5801132462B4650
:1003900000F08DF903B0BDE8F08F40462146F9E743
:1003A000001B61EB0201001C41F5801300185B414A
:1003B0002018A2F5001747EB030140EAD570B619E3
:1003C0006D4111E06D084FEA360645EAC0754FEA07
:1003D0000752001B61EB0201001C41F58011490826
:1003E0004FEA30000019514132462B4603B0BDE8B8
:1003F000F04F00F04DB90098012240000023D0EBEF
:10040000020263EBE073009821464FEAE074B8EB18
:10041000000061EB0401E9E783F000435BE781F052
:10042000004158E72DE9FE4F81EA030404F000443F
:1004300021F0004100944FF0000B23F0004350EAFC
:1004400001045ED052EA03045BD0C3F30A54C1F343
:100450000A552C44A4F2F3340194A0FB0254C1F3D6
:10046000130141F48011C3F3130343F4801301FB20
:10047000024400FB034E840A970A44EA815447EA87
:100480008357A4FB076802958D0A05FB07854FEA91
:10049000932C04FB0C542705029D4FEA065847EAAB
:1004A0001637B5EB08056EEB070C870E920E47EA80
:1004B000811742EA8312A7FB0201B6EB0B0164EB42
:1004C00000042B0D43EA0C335E1844EB1C50DA4653
:1004D0005146E7FB0201C5F313044FEA0B3343EA2D
:1004E00014534FEA0432019C43EA0603A4F10C04BE
:1004F0000294009CCDE900B400F0D9F803B0BDE847
:10050000F08F00200146F9E72DE9F04D81EA030460
:1005100004F0004B21F0004514464FF0000A23F090
:10052000004150EA050220D054EA01021DD0C5F373
:100530000A570246C5F31303C1F31300C1F30A5669
:1005400040F4801543F48013A7EB0608101BD64631
:1005500008F2FD3873EB050002D308F1010801E051
:1005600092185B41B8F1000F03DA00200146BDE8A4
:10057000F08D00204FF48011064684460EE0171BD4
:1005800073EB050705D3121B63EB050306434CEA27
:10059000010C49084FEA300092185B4150EA01070C
:1005A000EDD152EA030012D082EA040083EA050189
:1005B000084305D0101BAB4106D20122002306E000
:1005C00000224FF0004302E06FF0010253101AEBDB
:1005D00006004CEB085110EB0A0041EB0B01BDE8A3
:1005E000F04D00F055B8C1F30A52C1F3130140F2C7
:1005F000FF3341F480119A4202DA0020014670472D
:1006000040F233439A42A2F2334202DC5242FFF7F5
:1006100052BEFFF741BE000030B5041E71F1000468
:1006200004DB4FF00044404264EB0101141E73F1FF
:10063000000405DB1C464FF00043524263EB040309
:10064000994208BF904230BD064C074D06E0E06875
:1006500040F0010394E8070098471034AC42F6D309
:10066000FFF796FD98260008B8260008202A06DB2A
:10067000CB17203A41FA02F043EAE07306E041FA70
:1006800002F3D040C2F1200291400843194670475E
:1006900010B5141E73F1000408DA401C41F100018A
:1006A00092185B411A4301D120F0010010BD2DE9E1
:1006B000F04D92469B4611B1B1FA81F202E0B0FAD8
:1006C00080F220329046FFF7E7FD04460F4640EAED
:1006D0000A0041EA0B0153465A46084313D011461B
:1006E00053EA010019D0C8F140025046FFF7E3FD7C
:1006F00005460E46504659464246FFF7CDFD084393
:1007000005D0012004E020463946BDE8F08D0020E8
:10071000054346EAE0762C4337430A986305E40A2A
:10072000A0EB08000022FD0A44EA47540A3002D533
:1007300000200146E9E7010510196941DDE9084596
:1007400000196941BDE8F04DA2E7FEE7014800F05D
:10075000F6B900002800002010B588B00C460090C3
:10076000002001900290CDE90302064800F0D1F983
:10077000002805D006AB22466946024800F06AF818
:1007800008B010BD2800002000B58BB0002001216A
:10079000CDE905014022009207906022CDE90120B9
:1007A00003900891049069460A4800F0B1F808B136
:1007B00000F013F8074800F0B1FB08B100F00DF8A5
:1007C0000221044800F034F8002801D000F005F8B8
:1007D0000BB000BD28000020704772B6FEE7000095
:1007E00070B510EE100A0C4900250C4C884203DD50
:1007F0002078401C207000E025702078032809D361
:1008000006490722491C0120FFF7A6FF04A001F0BA
:100810005DFA257070BD0000000018420000002045
:10082000E68890E58A9FE58F91E980815C720A00F5
:1008300090F82020012A07D0022A05D0416A41F40D
:100840008021416201207047006842690A43426189
:1008500000207047F0B590F820500468A468012D7E
:1008600005D0022D03D0416A41F480214DE014F0FF
:10087000406F01D1E50045D5C4F301640125A540D1
:100880001D608D684FF4C0739DB1CE6835434E68CE
:1008900045EAC605066803EB0417F5514FF4C27527
:1008A000076805EB04150E697E51097D012905D005
:1008B00009E00E88CD6845EA4655EBE701684E59D8
:1008C00046F480764E511179D2F805504FF4C67631
:1008D00041EA0521056806EB0416A9511178D2F802
:1008E00001204FF4C47541EA0221026805EB0415AA
:1008F0005151006803EB0411425842F0010242508A
:100900000020F0BD416A41F4001141620120F0BDB8
:1009100010B590F82020012A07D0022A05D0416A9C
:1009200041F480214162012010BD3B48D0F80022F3
:1009300042F00102C0F80022D0F8002222F47C52DA
:10094000C0F80022D0F800224B6A42EA0322C0F825
:1009500000220A7D02F01F0301229A40D0F81C32C7
:100960009343C0F81C32CB69B3B9D0F80C3293432F
:10097000C0F80C328C894B6864F31F434C6900EB60
:10098000C404C4F840320C890B6864F31F434C69FB
:1009900000EBC404C4F84432CB69012B16D1D0F863
:1009A0000C321343C0F80C320C884B6864F31F43BD
:1009B0004C6900EBC404C4F840320C89CB6864F382
:1009C0001F434C6900EBC404C4F844328B69002B0C
:1009D000D0F804320ED01343C0F804320B69002B58
:1009E000D0F8143208D01343C0F81432096A012930
:1009F00004D008E09343EFE79343F5E7D0F81C12E7
:100A00001143C0F81C12D0F8001221F00101C0F807
:100A10000012002010BD000000640040704770B557
:100A200090F82040012C05D0022C03D0416A41F4FB
:100A3000802128E0046809B32469A40720D04FF47A
:100A4000D874056804EB01142D5915F00405956060
:100A500005682D591AD0ED08556005682C5904F029
:100A60000204D4604FF4DA74056804EB01142E59C3
:100A700006F00F06082E0CD308250DE0E468DCE72D
:100A8000416A41F400114162012070BD6D0D156095
:100A9000E3E72D5905F00F05156105682D59C5F3DC
:100AA0000725956105682C59240C54614FF4DC72BC
:100AB000046802EB0112A4581C700468A458240AAC
:100AC0005C700468A458240C9C700468A258120E30
:100AD000DA704FF4DE72046802EB0112A4581C7144
:100AE0000468A458240A5C710468A458240C9C71FE
:100AF0000468A258120EDA71006829B1016941F048
:100B000020010161002070BDC16841F02001C16079
:100B1000F8E70246002092F82010012901D00229AE
:100B20000CD111688A68520100D501208A6812012F
:100B300000D5401C8968C90000D5401C70472DE9CC
:100B4000F05F0546006800244669D0F80490876885
:100B5000D0F80CB0D0F810A0D0F81880F10748D029
:100B6000F90714D001218160B80703D5284600F0A9
:100B700002FA0CE0780702D54FF4006407E038076A
:100B800002D54FF4805402E0284600F0F3F9F8054E
:100B900016D529684FF480708860B80503D52846BB
:100BA00000F0EBF90CE0780502D544F4005407E0BE
:100BB000380502D544F4804402E0284600F0DCF910
:100BC000F80316D529684FF480308860B80303D540
:100BD000284600F0D4F90CE0780302D544F4004430
:100BE00007E0380302D544F4803402E0284600F0E0
:100BF000C5F9300707D55FEACB6004D52968102016
:100C000044F40074C86070074FF0080707D55FEA26
:100C10000B7004D52868C760284600F059F9B00762
:100C200006D52868C068800702D0284600F052F92F
:100C3000700607D55FEACA6004D52968102044F41D
:100C400080640861B00607D55FEA0A7004D5286899
:100C50000761284600F05EF9F00606D528680069AD
:100C6000800702D0284600F056F9B00308D55FEAA5
:100C7000C96005D5296810204860284600F04CF965
:100C8000F00307D55FEA097004D528684760284655
:100C900000F076F9300446D55FEA497040D5F0059A
:100CA00004D55FEAC87001D044F00104B00504D552
:100CB0005FEA887001D544F00204700504D55FEA4C
:100CC000487001D544F00404300529D518F0700FA0
:100CD00026D008F07000402815D006DC102809D076
:100CE00020280AD0302816D10AE050280ED06028DB
:100CF00011D10EE044F008040DE044F010040AE0C5
:100D000044F0200407E044F0400404E044F0800490
:100D100001E044F480742868816921F070018161E8
:100D2000296804204860002C05D0686A2043686266
:100D30002846FFF773FEBDE8F09F70B5040003D0AE
:100D400094F8200010B104E0012070BD204600F0AE
:100D500081F82068016841F00101016000F00AFAA1
:100D60000546052604E000F005FA401B0A2811D8C4
:100D700020684068C007F6D02068016821F00201B1
:100D8000016000F0F7F905460BE000F0F3F9401BB5
:100D90000A2806D9606A40F40030606284F8206056
:100DA000D2E7206840688007EFD4207E01282068C1
:100DB00001683DD021F080010160607E012820683B
:100DC000016838D021F040010160A07E0128206830
:100DD000016833D021F020010160E07E0128206805
:100DE00001682ED041F010010160207F01282068A9
:100DF000016829D021F008010160607F0128206886
:100E0000016824D021F004010160D4E90201084303
:100E1000D4E90412114308436168491E084321685C
:100E2000C86100206062012084F82000002070BDAD
:100E300041F08001C0E741F04001C5E741F02001E9
:100E4000CAE721F01001CFE741F00801D4E741F0F3
:100E50000401D9E710B586B0044614216846FFF7AF
:100E6000E7F918492068884229D11748016841F0FC
:100E700000710160006800F00070059012481038A1
:100E8000016841F0010101600068694600F001005D
:100E900005904FF4C0500090022001900120029074
:100EA0000320039009200490084800F06BF800220A
:100EB0001146142000F0CCF9142000F0BBF906B064
:100EC00010BD0000006400404038024000000240B5
:100ED0007047000000B50D4A016889B0914213D1F6
:100EE00007AB6A460021FFF79AFD002007AA0849D0
:100EF00003E0135C0B54401CC0B2049B8342F8D83F
:100F000003490120491E087009B000BD006400407B
:100F10000A000020704770477047000070B5044613
:100F200090F82000012804D0606A40F4002060623C
:100F300018E0022084F820002068016821F00101F7
:100F4000016000F017F905460EE000BF00F012F94D
:100F5000401B0A2808D9606A40F40030606205200E
:100F600084F82000012070BD20684068C007EDD1E2
:100F7000606270BD70477047704770477047704738
:100F8000704700002DE9F84FDFF8BCA100220125D1
:100F900003264FF00F090AF1040BAAF1040E00BF5B
:100FA0000B6805FA02F42340A34270D10F7907F0D1
:100FB0000307012F01D0022F16D187684FEA42089C
:100FC00006FA08FC27EA0C07D1F80CC00CFA08FC5A
:100FD0004CEA070CC0F808C04768A7430C79C4F373
:100FE000001494403C4344600C79E443A4070AD0C5
:100FF000C4684FEA420C06FA0CF7BC438F6807FA44
:101000000CF72743C7600C7904F00304022C12D1BB
:10101000D40800EB840CDCF820405707FF0E09FAD7
:1010200007F824EA0804D1F8108008FA07F848EA1B
:101030000408CCF8208004684FEA420C06FA0CF74A
:10104000BC430F7907F0030707FA0CF72743076043
:101050004C6814F4403F70D03C4C276847F48047FC
:101060002760246822F0030704F480440094384C7D
:1010700007EB040CDCF8084897074FEA177809FAE1
:1010800008F7BC43334FB84202D1002724E054E0B4
:10109000314FB84201D101271EE0304FB84201D193
:1010A000022719E02E4FB84201D1032714E02D4F3B
:1010B000B84201D104270FE02B4FB84201D10527D8
:1010C0000AE02A4FB84201D1062705E0284FB8426E
:1010D00001D1072700E0082707FA08F72743CCF8D3
:1010E0000878DAF800405746D1F804C09C435FEA1C
:1010F000CC2C00D51C433C60DBF800405F46D1F8A7
:1011000004C09C435FEA8C2C00D51C433C60DEF895
:1011100000407746D1F804C09C435FEA8C3C00D580
:101120001C433C60084F083F3C68D1F804C09C4316
:101130005FEACC3C00D51C433C60521C102AFFF4F3
:101140002FAFBDE8F88F0000083C01404438024052
:10115000003001400000024000040240000802404C
:10116000000C02400010024000140240001802402F
:10117000001C0240014880687047000014000020F5
:101180000248816802781144816070471400002091
:101190000B4810B5016841F400710160016841F429
:1011A00080610160016841F480710160032000F0FA
:1011B0006FF80F2000F006F800F024F8002010BDB2
:1011C000003C024070B50D4D04464FF47A7128780A
:1011D000B1FBF0F00A490968B1FBF0F000F00CFB3C
:1011E00048B9102C07D200222146501E00F030F8DA
:1011F00000206C6070BD012070BD00001400002054
:10120000200000200A4808B5016841F480410160CF
:10121000006800F4804000900548001F016841F01C
:1012200080510160006800F08050009008BD00000F
:1012300044380240002809DB00F01F0201219140E0
:101240004009800000F1E020C0F800117047000064
:10125000F0B40E4B1B680C46C3F30223C3F1070521
:10126000042D00D90425191D072901D2002300E00F
:10127000DB1E012606FA05F1491E214099409E40D9
:10128000761E16403143F0BC00F030BD0CED00E09E
:10129000064900F0070208684FF6FF03184040EACD
:1012A0000220034A10430860704700000CED00E084
:1012B0000000FA052DE9F0470E46050065D0DFF87D
:1012C0001481D8F80000F7B200F00700B04207D24E
:1012D00088F80070D8F8000000F00700B04254D140
:1012E00028683D4C810712D5400703D5206840F49B
:1012F000E05020602878000703D5206840F4604063
:1013000020602068A96820F0F00008432060287859
:10131000C0072DD0304968680839012812D002284A
:1013200013D0032811D00968890700292DDA216814
:1013300021F0030101432160FFF71CFF814641F2C8
:10134000883A0EE009688903EFE709688901ECE74C
:10135000FFF710FFA0EB0901514502D90320BDE8BA
:10136000F0872068696800F00C00B0EB810FEFD1C6
:10137000D8F80010404601F00701B14207D90770C4
:10138000006800F00700B04201D00120E7E72878AC
:10139000400705D52068E96820F4E0500843206044
:1013A0002878000706D52068296920F4604040EAC3
:1013B000C100206000F038F82168084AC1F3031129
:1013C000515CC8400649086006480068FFF7FAFE0D
:1013D0000020C4E7003C0240083802408026000894
:1013E0002000002018000020044805490068096812
:1013F000044AC1F38221515CC8407047200000209C
:101400000838024090260008044805490068096829
:10141000044AC1F34231515CC840704720000020AB
:101420000838024090260008154810B5006810F0F2
:101430000C02144813D01449042A0FD0082A0ED1E4
:101440000F4C241F2268236802F03F025B0207D57D
:101450002068C0F38810A0FB010106E0084610BD1B
:101460002168C1F38811A1FB00010023FEF7A8FE4B
:101470002168C1F30141491C4900B0FBF1F010BDE6
:10148000083802400024F40040787D012DE9F84F2F
:1014900004006ED02078DFF84C93C007A9F1040552
:1014A0004AD009F104000168C1F38101012908D083
:1014B0000068C0F3810002280AD1D9F80000400278
:1014C00006D52868800337D560680028E1D033E06E
:1014D0006068B0F5803F10D0B0F5A02F286810D01C
:1014E00020F480302860286820F48020286060681C
:1014F000A8B1FFF73FFE06460DE0286840F48030B3
:10150000F4E740F480202860F7E700BFFFF732FEE1
:10151000801B642873D828688003F7D50CE0FFF798
:1015200029FE064605E000BFFFF724FE801B642865
:10153000F0D828688003F7D42078DFF8AC828007E1
:101540004FF0000A3ED5A748001D016811F00C0FAE
:1015500008D00068C0F3810002280BD1D9F8000040
:10156000400207D42868800716D5E068012800D11A
:1015700012E033E1E068B8B10120C8F80000FFF7DD
:10158000F9FD064605E000BFFFF7F4FD801B0228C9
:10159000C0D828688007F7D52868216920F0F800AE
:1015A00040EAC10028600DE0C8F800A0FFF7E2FDA6
:1015B000064604E0FFF7DEFD801B02281FD82868DE
:1015C0008007F7D42078000722D5864F87486169C5
:1015D000703771B101210160FFF7CCFD064604E0D0
:1015E000FFF7C8FD801B022809D838688007F7D5A7
:1015F0000EE0C0F800A0FFF7BDFD064605E082E062
:10160000FFF7B8FD801B02287DD838688007F7D423
:101610002078400768D5DFF8CCB100270BF13C0BF0
:10162000DBF80000C0000BD4DBF8001041F0805163
:10163000CBF80010DBF80000012700F0805000908C
:101640006B4E3068C00510D4306840F48070306054
:10165000FFF790FD009005E0FFF78CFD0099401A20
:10166000022850D83068C005F6D55E4EA0686C36AA
:1016700001280FD00528306810D020F0010030601C
:10168000306820F004003060A068B8B1FFF772FD48
:1016900000900FE0306840F00100F4E740F00400F3
:1016A0003060F7E7FFF766FD0099411A41F2883094
:1016B000814266D830688007F4D50EE0FFF75AFD06
:1016C000009007E0FFF756FD0099411A41F288307B
:1016D000814256D830688007F4D42FB1DBF800106F
:1016E00021F08051CBF80010A069C8B33D49091D15
:1016F0000968C1F3810102294AD00228504607D067
:10170000C8F8600000E03CE0FFF734FD04463BE031
:101710004746C8F86000FFF72DFD064605E000BF0C
:10172000FFF728FD801B02282BD828688001F7D4FA
:10173000D4E907010843A16A2E4A490802EB014196
:10174000626A41EA8211084394F82C1040EA016170
:10175000C9F8001001203866FFF70CFD044606E0CA
:101760003EE000BFFFF706FD001B022809D82868ED
:101770008001F7D534E000BFFFF7FCFC001B022816
:1017800002D90320BDE8F88F28688001F4D427E04F
:101790000128F7D0D9F80000E26900F480019142F5
:1017A0001CD1226A00F03F01914217D147F6C07167
:1017B000626A0140B1EB821F10D1A26A4FF0FF3381
:1017C00000F4403103EB5202B1EB024F06D194F822
:1017D0002C1000F07060B0EB016F01D00120D1E758
:1017E0000020CFE70438024000004742800E474205
:1017F000007000400000FFFF10B5401EB0F1807F78
:1018000001D3012010BD4FF0E02460610F2160176B
:1018100000F06CFA0020A06107202061002010BDBC
:1018200070B5040004D094F84100002510B106E022
:10183000012070BD84F84050204600F023F8242099
:1018400084F841002068C16821F40051C16020463D
:1018500000F07CF92068016921F490410161206861
:10186000416921F02A0141612068C16841F40051B9
:10187000C1606564202084F8410084F842006563FB
:10188000002070BD10B586B0044614216846FEF7EE
:10189000CFFC14492068884221D1134800210268F6
:1018A00042F010020260006800F0100005900E483F
:1018B0001438026842F001020260006800F0010082
:1018C00005904FF4C06000900220CDE90101032093
:1018D00003900720049069460448FFF753FB06B0C5
:1018E00010BD0000001001404438024000000240DA
:1018F0002DE9F843044690F84100984616460D46F7
:10190000202802D00220BDE8F88385B17EB10020F6
:101910006064212084F84100FFF72CFCA6848146F6
:10192000E684A0682027B0F5805F02D003E00120A4
:10193000E9E7206910B12E4600250EE000260CE0F4
:101940008021204600F088F9A8B9C6B116F8010B2D
:1019500021684860E08C401EE084E08C4B464FF0EC
:101960000002CDF800800028EAD14FF04001204667
:1019700000F072F940B184F841700320C3E735F8F4
:10198000020BC0F30800E3E784F841700020BAE7D7
:10199000FEE700000F4810B50D49016007214160C6
:1019A00000214FF4E0228160C0E903124FF40012DD
:1019B0004261017641768176C17601774177FFF702
:1019C000BCF9002803D0BDE81040FEF706BF10BDEB
:1019D00000640040280000200D4808B5016841F06F
:1019E00004010160016801F004010091016841F007
:1019F00080010160016801F080010091016841F0FF
:101A000001010160006800F00100009008BD0000C5
:101A1000303802400C4810B50A4901604FF4E131FA
:101A20004160002181600C22C160C0E90412816123
:101A3000C161FFF7F5FE002803D0BDE81040FEF7B6
:101A4000CCBE10BD0010014050000020FEE7FEE7B4
:101A500070477047FFF794BB30B593B030216846AC
:101A6000FEF7E6FB14210CA8FEF7E2FB1D4800255B
:101A7000016841F080510160006800F080501190D1
:101A80001948016841F4804101600068022400F4B3
:101A9000804011900120039010200490009406943F
:101AA0000820CDE90750A820CDE9090404200B90B7
:101AB0006846FFF7EBFC08B172B6FEE70CA90F20F1
:101AC00081E831004FF4A0500F904FF480501090F7
:101AD00005210CA8FFF7EEFB002801D072B6FEE747
:101AE00013B030BD40380240007000400248016829
:101AF00041F470010160704788ED00E001680C312D
:101B000051E8002F22F4907241E80023002BF5D118
:101B10000168143151E8002F22F0010241E800234E
:101B2000002BF5D1016B012909D101680C3151E875
:101B3000002F22F0100241E80023002BF5D12021D4
:101B400080F84210002101637047000070B5044620
:101B500000680169E26821F4405111430161216983
:101B6000A068E26908436169114308432168CA68B3
:101B700049F20C639A430243CA6020684169A26932
:101B800021F440711143416131492068884202D0FB
:101B90003049884202D1FFF737FC01E0FFF724FC0F
:101BA000E2690023192164253226B2F5004F6268EC
:101BB00028D0A0FB0101930F9200FEF701FB014624
:101BC000B0FBF5F06FF01802504301EB800006EB1C
:101BD0000010B0FBF5F000F0F002B1FBF5F002EB05
:101BE0000012B1FBF5F06FF01803584301EB8000D1
:101BF00006EB0010B0FBF5F000F00F002168104478
:101C0000886070BDA0FB010192185B41FEF7D8FA15
:101C10000146B0FBF5F00201B1FBF5F06FF01803DF
:101C2000584301EB800006EBC000B0FBF5F000F07C
:101C3000F80002EB4002B1FBF5F0584301EB8000E5
:101C400006EBC000B0FBF5F000F00700D6E700009F
:101C500000100140001401402DE9F8439846174652
:101C60000D460446089E24E0701C22D0FFF782FA3D
:101C7000A0EB0800B0421AD8CEB12068C16849076D
:101C800017D5802D15D0402D13D00168C943090701
:101C90000FD401680025406800902046FFF72EFF12
:101CA0000820606484F840500120BDE8F8830320D8
:101CB000FBE72068006835EA000004D00020B84245
:101CC000D2D00020F1E70120F9E7FEE70FB4054B81
:101CD00010B503A9044A029800F0EAF810BC5DF8B8
:101CE00014FB0000E1250008240000200907090E6C
:101CF000002804DB00F1E02080F80014704700F0B9
:101D00000F0000F1E02080F8141D704702E008C8C1
:101D1000121F08C1002AFAD170477047002001E065
:101D200001C1121F002AFBD1704700002DE9FF5F9F
:101D300082B00021DDE90430020DDDF840B003433C
:101D400018D044F61050A2F2FF32424315141198F5
:101D500001281FD0A5EB0B00401C5FEA000A4FF0E2
:101D600000064E4FDFF83891B046504615D5CAF1FF
:101D7000000413E0119801244AA3012801D16FEA5D
:101D80000B010298119AC0E90031C0E9024206B085
:101D9000BDE8F09FCBF10000DFE704460021404A98
:101DA000491842EB0450CDE9001012E0E00707D0DB
:101DB00032463B4640464946FEF734FB804689465C
:101DC00032463B4610461946FEF72CFB06460F46A8
:101DD0006410002CEAD1DDE90401DDE90023BAF149
:101DE000000F06DAFEF71EFB42464B46FEF71AFBD3
:101DF00005E0FEF789FB42464B46FEF785FB0446AD
:101E00000E460022284BFEF707FC03D84FF0FF30A8
:101E1000014607E00022254B20463146FEF75BFADB
:101E2000FEF7E1FB102409E0002C0ADB0A22002364
:101E3000FEF7C6F9039B30321A55641E50EA0102C0
:101E4000F2D1641C039AC4F111031444119A012ABB
:101E500003D0012208430DD10AE0084304D000203A
:101E60004FF0110B119072E7A3EB0B056D1E0DE007
:101E70005B4504DD4FF0000205F1010504E003DAE3
:101E80004FF00002A5F10105002AECD0029811994B
:101E9000C0E90231C0E9004579E7000000001440C4
:101EA0000000F03F300000000000F0430000E03F81
:101EB0002DE9FF4F95B09B468946064600250FE267
:101EC000252877D100242746F84A0121059400E00F
:101ED000044316F8013F203B01FA03F01042F7D10A
:101EE00030782A2811D06FF02F033078A0F130021B
:101EF000092A16D8059A44F0020402EB820203EB89
:101F000042021044761C0590EFE759F8042B059225
:101F1000002A03DA504244F40054059044F00204CD
:101F2000761C30782E2816D116F8010F44F00404E0
:101F30002A280DD06FF02F023078A0F13003092B42
:101F400009D807EB870302EB4303C718761CF3E7B6
:101F500059F8047B761C30786C280FD006DC4C28AE
:101F600017D068280DD06A2814D104E0742810D046
:101F70007A280FD10DE044F400140AE044F48014F0
:101F800001E044F440147278824202D104F58014D6
:101F9000761C761C307866280BD013DC582877D056
:101FA00009DC002875D04528F6D04628F4D047280B
:101FB0001AD19DE118E0632835D0642879D06528CE
:101FC00012D195E1702873D008DC6728F1D0692818
:101FD0006FD06E280DD06F2806D1B5E073282CD0B5
:101FE000752875D0782874D05A46179990476D1C7B
:101FF00075E1C4F30250022809D003280DD0D9F8A6
:10200000001004280DD00D6009F1040967E1D9F82A
:102010000010EA17C1E90052F6E7D9F800100D8068
:10202000F2E70D70F0E719F8041B8DF8001000209E
:102030008DF80100EA46012003E059F804AB4FF0A7
:10204000FF3061074FF0000102D40DE008F10101FB
:102050008846B9420FDA8045F8DB1AF808100029E3
:10206000F4D108E008F1010188468142FADB1AF850
:1020700008100029F6D105985B46A0EB0807214619
:102080003846179A00F094FA284400EB080507E058
:102090004DE029E10DE01AF8010B5A4617999047D7
:1020A000B8F10108F7D25B4621463846179A13E18A
:1020B00042E00A220092C4F302524FF0000A022AC0
:1020C00008D059F804CB032A4FEAEC710AD00DE08E
:1020D00029E02AE009F1070121F00702F2E802C134
:1020E000914609E00FFA8CFC4FEAEC71042A03D107
:1020F0004FFA8CFC4FEAEC71002907DA0A460021FE
:10210000DCF1000C61EB02012D2202E0220504D576
:102110002B228DF80420012203E0E20701D02022C7
:10212000F7E7904659E00A2102E010220DE0102165
:102130004FF0000A00910BE010224FF0000A44F02B
:1021400004040827009203E008224FF0000A0092DE
:10215000C4F30252022A05D059F804CB0021032A05
:1021600008D009E009F1070121F00702F2E802C1F5
:10217000914605E01FFA8CFC042A01D10CF0FF0CFB
:102180004FF00008220728D5702806D0009B83F066
:10219000100353EA0A0305D00EE040228DF8042014
:1021A000012208E05CEA010206D030228DF804200A
:1021B0008DF8050002229046009B83F0080353EA45
:1021C0000A030AD15CEA010201D1620705D5302277
:1021D0008DF804204FF001087F1E582804D034A049
:1021E00003900EA802900DE036A0F9E75346604632
:1021F000009AFDF7E5FF84460398825C0298401E32
:10220000029002705CEA0100F0D1029806A9081A57
:1022100000F1200A600702D524F4803400E0012791
:10222000574502DDA7EB0A0000E0002000EB0A01A1
:10223000009005984144401A0590E00306D45B469F
:102240002146179A059800F0B3F90544002706E0E7
:1022500001A85A46C05D179990476D1C7F1C4745E1
:10226000F6DBE0030CD55B462146179A059800F093
:102270009FF9054404E030205A46179990476D1C99
:102280000099481E00900029F5DC08E002980299A8
:102290005A460078491C0291179990476D1CBAF173
:1022A0000001AAF1010AF1DC65E100000928010042
:1022B00030313233343536373839616263646566BC
:1022C000000000003031323334353637383941427E
:1022D000434445460000000000F058F90544761CD0
:1022E000307800287FF4ECAD19B02846BDE8F08FB7
:1022F000620700D4062709F1070222F0070CFCE868
:102300000223E14603F000485FEA080C02D00FF216
:10231000702C0DE05FEA045C02D50FF2682C07E038
:102320005FEAC47C02D00FF2602C01E0AFF2700CC7
:102330004FF0FF3823F00043CDF850C065280CD093
:1023400006DC452809D046281DD047283DD13DE070
:10235000662818D067287ED138E00021112F01DBD4
:10236000112000E0781CCDE9000106A90EA8FFF7B6
:10237000DDFCDDE90F010E9A03910021009207F1C7
:10238000010A04914DE04FF000400097CDE90110A3
:1023900006A90EA8FFF7CAFCDDE90F0203920E9B07
:1023A00011990022DDF80CA00093049211B9791C58
:1023B00000EB010AB7EB0A0004D4C0F1FF3007F1CB
:1023C000010A0490AAEB0700019044E0012F00DA13
:1023D00001270021112F01DD112000E03846CDE951
:1023E000000106A90EA8FFF7A1FCDDE90F010E9A76
:1023F0000391002104910092BA4621070CD403995D
:10240000514500DA8A46BAF1010F05DD009AAAF1BA
:102410000101515C302908D0B84202DA10F1040FF2
:1024200006DA0121CDE9011015E0AAF10101E9E781
:10243000002805DC049901440491AAEB000102E0A4
:10244000411C514500DD8A460499401A401C019008
:102450004FF000400290200704D40198504501DB62
:10246000CDF8048000208DF84F0002980DF14F0741
:10247000B0F1004F25D02B200E9002984FF00208AB
:1024800000280CDA404202902D200E9007E00A212D
:102490000298FDF7EBFE3031029007F8011DB8F10C
:1024A0000001A8F10108F2DC02980028EFD1791EA2
:1024B0000E980870307800F0200040F0450007F8D2
:1024C000020D12A8C01B00F107081498007800B193
:1024D000012000EB0A01019801EBE07105984144ED
:1024E000401A401E0590E00306D45B462146179A29
:1024F000059800F05DF805441498007818B15A4624
:10250000179990476D1CE00324D55B462146179A26
:10251000059800F04DF805441CE00498002807DBFE
:10252000DDE90301884203DD0098405C179901E072
:10253000179930205A469047049805F10105401C30
:1025400004900198401E019004D12E205A461799FC
:1025500090476D1CBAF10001AAF1010ADDDC05E02B
:1025600017F8010B5A46179990476D1CB8F10001F6
:10257000A8F10108F4DC5B462146179A0598ABE602
:102580002D0000002B000000200000002DE9F0418C
:10259000044600251E461746880404D405E0394643
:1025A0002020B0476D1C641EF9D52846BDE8F08197
:1025B0002DE9F041044600251E469046C80301D58A
:1025C000302700E02027880404D505E0414638463E
:1025D000B0476D1C641EF9D52846BDE8F0810000A7
:1025E00013B54FF0FF33012269460248FFF780F927
:1025F00000981CBD500000202DED028BFEF7C8FD99
:10260000FFF72AFAFFF7E8F9FFF7C4F9FFF702FA34
:10261000FEF7BAF811A0FFF759FB144C144EDFED8A
:10262000158A002520780128FCD1308840BA00EEB8
:10263000100AB8EE400A80EE288A18EE100AFDF75C
:1026400002FE41EC100B0CA053EC102BFFF73EFBED
:10265000B0EE480AFEF7C4F82570E3E7E590AFE571
:102660008AA8E68890E58A9F0D0A000009000020EC
:102670000A0000200000C84225302E32660D0A00F4
:102680000000000000000000010203040607080922
:102690000000000001020304B8260008000000202A
:1026A000280000000C1D0008E0260008280000207B
:1026B000700400001C1D0008005761726E696E678F
:1026C0000000000000000000000000000100000009
:1026D00010000000000000000024F40000000000D2
:040000050800018965
:00000001FF
