:020000040800F2
:10000000900400209D0100087F150008C11400081D
:100010007D150008A9020008FB1700080000000079
:100020000000000000000000000000008315000830
:100030003503000800000000811500088515000840
:10004000B7010008B7010008B7010008B7010008B0
:10005000B7010008B7010008B7010008B7010008A0
:10006000B7010008B7010008B7010008B701000890
:10007000B7010008B7010008B7010008B701000880
:10008000B7010008B7010008B7010008B701000870
:10009000AD020008B7010008B7010008B701000869
:1000A000B7010008B7010008B7010008B701000850
:1000B000B7010008B7010008B7010008B701000840
:1000C000B7010008B7010008B7010008B701000830
:1000D000B7010008B7010008B7010008B701000820
:1000E000B7010008B7010008B7010008B701000810
:1000F000B7010008B7010008B7010008B701000800
:10010000B7010008B7010008B7010008B7010008EF
:10011000B7010008B7010008B7010008B7010008DF
:10012000B7010008B7010008B7010008B7010008CF
:10013000B7010008B7010008B7010008B7010008BF
:10014000B7010008B7010008B7010008B7010008AF
:10015000B7010008B7010008B7010008B70100089F
:10016000B7010008B7010008B7010008B70100088F
:10017000B7010008B7010008B7010008000000003F
:10018000B7010008B7010008DFF80CD000F07AF8DA
:1001900000480047D91C000890040020064880470A
:1001A00006480047FEE7FEE7FEE7FEE7FEE7FEE75C
:1001B000FEE7FEE7FEE7FEE71D16000889010008DE
:1001C0002DE9F05F0546002092469B46884606468C
:1001D000814640241BE0284641464746224600F01F
:1001E00041F853465A46C01A914110D31146184659
:1001F000224600F028F82D1A67EB01084F462246E8
:100200000120002100F01FF817EB00094E41201ECD
:10021000A4F10104DFDC484631462A464346BDE8E6
:10022000F09FD2B201E000F8012B491EFBD27047CB
:100230000022F6E710B513460A4604461946FFF7B2
:10024000F0FF204610BD202A04DB203A00FA02F11C
:10025000002070479140C2F1200320FA03F31943B4
:1002600090407047202A04DB203A21FA02F0002156
:10027000704721FA02F3D040C2F1200291400843B6
:1002800019467047064C074D06E0E06840F0010350
:1002900094E8070098471034AC42F6D3FFF778FF94
:1002A000A81D0008C81D0008FEE70000014800F076
:1002B000CCB900002000002010B588B00C4600909A
:1002C000002001900290CDE90302064800F0A7F952
:1002D000002805D006AB22466946024800F03FF8E8
:1002E00008B010BD2000002000B58BB00020012117
:1002F000CDE90601039005900090019002900891CD
:10030000049069460A4800F089F808B100F013F833
:10031000074800F089FB08B100F00DF802210448FD
:1003200000F00BF8002801D000F005F80BB000BD7C
:1003300020000020704772B6FEE790F82020012AC6
:1003400007D0022A05D0416A41F480214162012090
:100350007047006842690A43426100207047F0B567
:1003600090F820500468A468012D05D0022D03D018
:10037000416A41F480214DE014F0406F01D1E50065
:1003800045D5C4F301640125A5401D608D684FF477
:10039000C0739DB1CE6835434E6845EAC605066810
:1003A00003EB0417F5514FF4C275076805EB04150C
:1003B0000E697E51097D012905D009E00E88CD68BE
:1003C00045EA4655EBE701684E5946F480764E51B2
:1003D0001179D2F805504FF4C67641EA0521056837
:1003E00006EB0416A9511178D2F801204FF4C47518
:1003F00041EA0221026805EB04155151006803EB44
:100400000411425842F0010242500020F0BD416AFE
:1004100041F4001141620120F0BD000010B590F8D8
:100420002020012A07D0022A05D0416A41F4802108
:100430004162012010BD3B48D0F8002242F0010289
:10044000C0F80022D0F8002222F47C52C0F800222A
:10045000D0F800224B6A42EA0322C0F800220A7D4B
:1004600002F01F0301229A40D0F81C329343C0F8D7
:100470001C32CB69B3B9D0F80C329343C0F80C32BC
:100480008C894B6864F31F434C6900EBC404C4F8C7
:1004900040320C890B6864F31F434C6900EBC404C1
:1004A000C4F84432CB69012B16D1D0F80C32134377
:1004B000C0F80C320C884B6864F31F434C6900EBA6
:1004C000C404C4F840320C89CB6864F31F434C6900
:1004D00000EBC404C4F844328B69002BD0F804321A
:1004E0000ED01343C0F804320B69002BD0F814323D
:1004F00008D01343C0F81432096A012904D008E077
:100500009343EFE79343F5E7D0F81C121143C0F88B
:100510001C12D0F8001221F00101C0F800120020D6
:1005200010BD000000640040704770B590F8204096
:10053000012C05D0022C03D0416A41F4802128E02F
:10054000046809B32469A40720D04FF4D87405685F
:1005500004EB01142D5915F00405956005682D591B
:100560001AD0ED08556005682C5904F00204D460D7
:100570004FF4DA74056804EB01142E5906F00F06E7
:10058000082E0CD308250DE0E468DCE7416A41F44D
:1005900000114162012070BD6D0D1560E3E72D591A
:1005A00005F00F05156105682D59C5F307259561FF
:1005B00005682C59240C54614FF4DC72046802EB7A
:1005C0000112A4581C700468A458240A5C700468C2
:1005D000A458240C9C700468A258120EDA704FF4D0
:1005E000DE72046802EB0112A4581C710468A4585E
:1005F000240A5C710468A458240C9C710468A258F5
:10060000120EDA71006829B1016941F0200101611F
:10061000002070BDC16841F02001C160F8E70246CA
:10062000002092F82010012901D002290CD1116874
:100630008A68520100D501208A68120100D5401C49
:100640008968C90000D5401C70472DE9F05F054658
:10065000006800244669D0F804908768D0F80CB090
:10066000D0F810A0D0F81880F10748D0F90714D0BE
:1006700001218160B80703D5284600F002FA0CE09A
:10068000780702D54FF4006407E0380702D54FF42D
:10069000805402E0284600F0F3F9F80516D52968E1
:1006A0004FF480708860B80503D5284600F0EBF958
:1006B0000CE0780502D544F4005407E0380502D573
:1006C00044F4804402E0284600F0DCF9F80316D533
:1006D00029684FF480308860B80303D5284600F0BD
:1006E000D4F90CE0780302D544F4004407E0380361
:1006F00002D544F4803402E0284600F0C5F9300702
:1007000007D55FEACB6004D52968102044F4007453
:10071000C86070074FF0080707D55FEA0B7004D573
:100720002868C760284600F059F9B00706D5286840
:10073000C068800702D0284600F052F9700607D53D
:100740005FEACA6004D52968102044F48064086117
:10075000B00607D55FEA0A7004D528680761284605
:1007600000F05EF9F00606D528680069800702D01F
:10077000284600F056F9B00308D55FEAC96005D5F0
:10078000296810204860284600F04CF9F00307D58E
:100790005FEA097004D528684760284600F076F9BA
:1007A000300446D55FEA497040D5F00504D55FEACC
:1007B000C87001D044F00104B00504D55FEA887028
:1007C00001D544F00204700504D55FEA487001D5F4
:1007D00044F00404300529D518F0700F26D008F035
:1007E0007000402815D006DC102809D020280AD037
:1007F000302816D10AE050280ED0602811D10EE022
:1008000044F008040DE044F010040AE044F0200431
:1008100007E044F0400404E044F0800401E044F4C4
:1008200080742868816921F0700181612968042041
:100830004860002C05D0686A204368622846FFF7AC
:1008400073FEBDE8F09F70B5040003D094F820005B
:1008500010B104E0012070BD204600F081F820684E
:10086000016841F00101016000F01CFA054605260F
:1008700004E000F017FA401B0A2811D820684068ED
:10088000C007F6D02068016821F00201016000F085
:1008900009FA05460BE000F005FA401B0A2806D9C4
:1008A000606A40F40030606284F82060D2E720681B
:1008B00040688007EFD4207E0128206801683DD081
:1008C00021F080010160607E01282068016838D035
:1008D00021F040010160A07E01282068016833D02A
:1008E00021F020010160E07E0128206801682ED0FF
:1008F00041F010010160207F01282068016829D0A3
:1009000021F008010160607F01282068016824D07F
:1009100021F004010160D4E902010843D4E9041282
:10092000114308436168491E08432168C8610020DB
:100930006062012084F82000002070BD41F0800139
:10094000C0E741F04001C5E741F02001CAE721F0CE
:100950001001CFE741F00801D4E741F00401D9E7E5
:1009600010B586B0044614216846FFF761FC1849AB
:100970002068884229D11748016841F00071016060
:10098000006800F00070059012481038016841F0CE
:10099000010101600068694600F0010005904FF414
:1009A000C05000900220019001200290032003908B
:1009B00009200490084800F07DF800221146142018
:1009C00000F0DEF9142000F0CDF906B010BD0000F3
:1009D00000640040403802400000024070470000C0
:1009E00000B50D4A016889B0914213D107AB6A4640
:1009F0000021FFF79AFD002007AA084903E0135CD5
:100A00000B54401CC0B2049B8342F8D80349012018
:100A1000491E087009B000BD0064004001000020BC
:100A2000704770477047000070B5044690F820008A
:100A3000012804D0606A40F40020606218E00220BF
:100A400084F820002068016821F00101016000F0B5
:100A500029F905460EE000BF00F024F9401B0A28E2
:100A600008D9606A40F400306062052084F82000F4
:100A7000012070BD20684068C007EDD1606270BD84
:100A80007047704770477047704770477047000065
:100A900070B5044600F006F90546601C02D0044813
:100AA0000078044400F0FEF8401BA042FAD370BD69
:100AB0000C0000202DE9F84FDFF8BCA10022012531
:100AC00003264FF00F090AF1040BAAF1040E00BF30
:100AD0000B6805FA02F42340A34270D10F7907F0A6
:100AE0000307012F01D0022F16D187684FEA420871
:100AF00006FA08FC27EA0C07D1F80CC00CFA08FC2F
:100B00004CEA070CC0F808C04768A7430C79C4F347
:100B1000001494403C4344600C79E443A4070AD099
:100B2000C4684FEA420C06FA0CF7BC438F6807FA18
:100B30000CF72743C7600C7904F00304022C12D190
:100B4000D40800EB840CDCF820405707FF0E09FAAC
:100B500007F824EA0804D1F8108008FA07F848EAF0
:100B60000408CCF8208004684FEA420C06FA0CF71F
:100B7000BC430F7907F0030707FA0CF72743076018
:100B80004C6814F4403F70D03C4C276847F48047D1
:100B90002760246822F0030704F480440094384C52
:100BA00007EB040CDCF8084897074FEA177809FAB6
:100BB00008F7BC43334FB84202D1002724E054E089
:100BC000314FB84201D101271EE0304FB84201D168
:100BD000022719E02E4FB84201D1032714E02D4F10
:100BE000B84201D104270FE02B4FB84201D10527AD
:100BF0000AE02A4FB84201D1062705E0284FB84243
:100C000001D1072700E0082707FA08F72743CCF8A7
:100C10000878DAF800405746D1F804C09C435FEAF0
:100C2000CC2C00D51C433C60DBF800405F46D1F87B
:100C300004C09C435FEA8C2C00D51C433C60DEF86A
:100C400000407746D1F804C09C435FEA8C3C00D555
:100C50001C433C60084F083F3C68D1F804C09C43EB
:100C60005FEACC3C00D51C433C60521C102AFFF4C8
:100C70002FAFBDE8F88F0000083C01404438024027
:100C80000030014000000240000402400008024021
:100C9000000C024000100240001402400018024004
:100CA000001C024001488068704700000C000020D2
:100CB0000248816802781144816070470C0000206E
:100CC0000B4810B5016841F400710160016841F4FE
:100CD00080610160016841F480710160032000F0CF
:100CE0006FF80F2000F006F800F024F8002010BD87
:100CF000003C024070B50D4D04464FF47A712878DF
:100D0000B1FBF0F00A490968B1FBF0F000F00CFB10
:100D100048B9102C07D200222146501E00F030F8AE
:100D200000206C6070BD012070BD00000C00002030
:100D3000180000200A4808B5016841F480410160AC
:100D4000006800F4804000900548001F016841F0F1
:100D500080510160006800F08050009008BD0000E4
:100D600044380240002809DB00F01F0201219140B5
:100D70004009800000F1E020C0F800117047000039
:100D8000F0B40E4B1B680C46C3F30223C3F10705F6
:100D9000042D00D90425191D072901D2002300E0E4
:100DA000DB1E012606FA05F1491E214099409E40AE
:100DB000761E16403143F0BC00F030BD0CED00E073
:100DC000064900F0070208684FF6FF03184040EAA2
:100DD0000220034A10430860704700000CED00E059
:100DE0000000FA052DE9F0470E46050065D0DFF852
:100DF0001481D8F80000F7B200F00700B04207D223
:100E000088F80070D8F8000000F00700B04254D114
:100E100028683D4C810712D5400703D5206840F46F
:100E2000E05020602878000703D5206840F4604037
:100E300020602068A96820F0F0000843206028782E
:100E4000C0072DD0304968680839012812D002281F
:100E500013D0032811D00968890700292DDA2168E9
:100E600021F0030101432160FFF71CFF814641F29D
:100E7000883A0EE009688903EFE709688901ECE721
:100E8000FFF710FFA0EB0901514502D90320BDE88F
:100E9000F0872068696800F00C00B0EB810FEFD19B
:100EA000D8F80010404601F00701B14207D9077099
:100EB000006800F00700B04201D00120E7E7287881
:100EC000400705D52068E96820F4E0500843206019
:100ED0002878000706D52068296920F4604040EA98
:100EE000C100206000F038F82168084AC1F30311FE
:100EF000515CC8400649086006480068FFF7FAFEE2
:100F00000020C4E7003C024008380240901D000861
:100F100018000020100000200448054900680968F6
:100F2000044AC1F38221515CC84070471800002078
:100F300008380240A01D00080448054900680968F7
:100F4000044AC1F34231515CC84070471800002088
:100F500008380240A01D0008154810B5006810F0C0
:100F60000C02144813D01449042A0FD0082A0ED1B9
:100F70000F4C241F2268236802F03F025B0207D552
:100F80002068C0F38810A0FB010106E0084610BDF0
:100F90002168C1F38811A1FB00010023FFF710F9BC
:100FA0002168C1F30141491C4900B0FBF1F010BDBB
:100FB000083802400024F40040787D012DE9F84F04
:100FC00004006ED02078DFF84C93C007A9F1040527
:100FD0004AD009F104000168C1F38101012908D058
:100FE0000068C0F3810002280AD1D9F8000040024D
:100FF00006D52868800337D560680028E1D033E043
:101000006068B0F5803F10D0B0F5A02F286810D0F0
:1010100020F480302860286820F4802028606068F0
:10102000A8B1FFF73FFE06460DE0286840F4803087
:10103000F4E740F480202860F7E700BFFFF732FEB6
:10104000801B642873D828688003F7D50CE0FFF76D
:1010500029FE064605E000BFFFF724FE801B64283A
:10106000F0D828688003F7D42078DFF8AC828007B6
:101070004FF0000A3ED5A748001D016811F00C0F83
:1010800008D00068C0F3810002280BD1D9F8000015
:10109000400207D42868800716D5E068012800D1EF
:1010A00012E033E1E068B8B10120C8F80000FFF7B2
:1010B000F9FD064605E000BFFFF7F4FD801B02289E
:1010C000C0D828688007F7D52868216920F0F80083
:1010D00040EAC10028600DE0C8F800A0FFF7E2FD7B
:1010E000064604E0FFF7DEFD801B02281FD82868B3
:1010F0008007F7D42078000722D5864F874861699A
:10110000703771B101210160FFF7CCFD064604E0A4
:10111000FFF7C8FD801B022809D838688007F7D57B
:101120000EE0C0F800A0FFF7BDFD064605E082E036
:10113000FFF7B8FD801B02287DD838688007F7D4F8
:101140002078400768D5DFF8CCB100270BF13C0BC5
:10115000DBF80000C0000BD4DBF8001041F0805138
:10116000CBF80010DBF80000012700F08050009061
:101170006B4E3068C00510D4306840F48070306029
:10118000FFF790FD009005E0FFF78CFD0099401AF5
:10119000022850D83068C005F6D55E4EA0686C367F
:1011A00001280FD00528306810D020F001003060F1
:1011B000306820F004003060A068B8B1FFF772FD1D
:1011C00000900FE0306840F00100F4E740F00400C8
:1011D0003060F7E7FFF766FD0099411A41F2883069
:1011E000814266D830688007F4D50EE0FFF75AFDDB
:1011F000009007E0FFF756FD0099411A41F2883050
:10120000814256D830688007F4D42FB1DBF8001043
:1012100021F08051CBF80010A069C8B33D49091DE9
:101220000968C1F3810102294AD00228504607D03B
:10123000C8F8600000E03CE0FFF734FD04463BE006
:101240004746C8F86000FFF72DFD064605E000BFE1
:10125000FFF728FD801B02282BD828688001F7D4CF
:10126000D4E907010843A16A2E4A490802EB01416B
:10127000626A41EA8211084394F82C1040EA016145
:10128000C9F8001001203866FFF70CFD044606E09F
:101290003EE000BFFFF706FD001B022809D82868C2
:1012A0008001F7D534E000BFFFF7FCFC001B0228EB
:1012B00002D90320BDE8F88F28688001F4D427E024
:1012C0000128F7D0D9F80000E26900F480019142CA
:1012D0001CD1226A00F03F01914217D147F6C0713C
:1012E000626A0140B1EB821F10D1A26A4FF0FF3356
:1012F00000F4403103EB5202B1EB024F06D194F8F7
:101300002C1000F07060B0EB016F01D00120D1E72C
:101310000020CFE70438024000004742800E4742D9
:10132000007000400000FFFF10B5401EB0F1807F4C
:1013300001D3012010BD4FF0E02460610F21601740
:1013400000F06CFA0020A06107202061002010BD91
:1013500070B5040004D094F84100002510B106E0F7
:10136000012070BD84F84050204600F023F824206E
:1013700084F841002068C16821F40051C160204612
:1013800000F07CF92068016921F490410161206836
:10139000416921F02A0141612068C16841F400518E
:1013A000C1606564202084F8410084F842006563D0
:1013B000002070BD10B586B0044614216846FEF7C3
:1013C00037FF14492068884221D113480021026860
:1013D00042F010020260006800F0100005900E4814
:1013E0001438026842F001020260006800F0010057
:1013F00005904FF4C06000900220CDE90101032068
:1014000003900720049069460448FFF753FB06B099
:1014100010BD0000001001404438024000000240AE
:101420002DE9F843044690F84100984616460D46CB
:10143000202802D00220BDE8F88385B17EB10020CB
:101440006064212084F84100FFF72CFCA6848146CB
:10145000E684A0682027B0F5805F02D003E0012079
:10146000E9E7206910B12E4600250EE000260CE0C9
:101470008021204600F088F9A8B9C6B116F8010B02
:1014800021684860E08C401EE084E08C4B464FF0C1
:101490000002CDF800800028EAD14FF0400120463C
:1014A00000F072F940B184F841700320C3E735F8C9
:1014B000020BC0F30800E3E784F841700020BAE7AC
:1014C000FEE700000F4810B50D490160072141609B
:1014D00000214FF4E0228160C0E903124FF40012B2
:1014E0004261017641768176C17601774177FFF7D7
:1014F000AAF9002803D0BDE81040FEF71CBF10BDBC
:1015000000640040200000200D4808B5016841F04B
:1015100004010160016801F004010091016841F0DB
:1015200080010160016801F080010091016841F0D3
:1015300001010160006800F00100009008BD00009A
:10154000303802400C4810B50A4901604FF4E131CF
:101550004160002181600C22C160C0E904128161F8
:10156000C161FFF7F5FE002803D0BDE81040FEF78B
:10157000E2BE10BD0010014048000020FEE7FEE77B
:1015800070477047FFF794BB30B593B03021684681
:10159000FEF74EFE14210CA8FEF74AFE1D4800255A
:1015A000016841F080510160006800F080501190A6
:1015B0001948016841F4804101600068022400F488
:1015C0008040119001200390102004900094069414
:1015D0000820CDE90750A820CDE9090404200B908C
:1015E0006846FFF7EBFC08B172B6FEE70CA90F20C6
:1015F00081E831004FF4A0500F904FF480501090CC
:1016000005210CA8FFF7EEFB002801D072B6FEE71B
:1016100013B030BD403802400070004002480168FD
:1016200041F470010160704788ED00E001680C3101
:1016300051E8002F22F4907241E80023002BF5D1ED
:101640000168143151E8002F22F0010241E8002323
:10165000002BF5D1016B012909D101680C3151E84A
:10166000002F22F0100241E80023002BF5D12021A9
:1016700080F84210002101637047000070B50446F5
:1016800000680169E26821F4405111430161216958
:10169000A068E26908436169114308432168CA6888
:1016A00049F20C639A430243CA6020684169A26907
:1016B00021F440711143416131492068884202D0D0
:1016C0003049884202D1FFF737FC01E0FFF724FCE4
:1016D000E2690023192164253226B2F5004F6268C1
:1016E00028D0A0FB0101930F9200FEF769FD01468F
:1016F000B0FBF5F06FF01802504301EB800006EBF1
:101700000010B0FBF5F000F0F002B1FBF5F002EBD9
:101710000012B1FBF5F06FF01803584301EB8000A5
:1017200006EB0010B0FBF5F000F00F00216810444C
:10173000886070BDA0FB010192185B41FEF740FD7F
:101740000146B0FBF5F00201B1FBF5F06FF01803B4
:10175000584301EB800006EBC000B0FBF5F000F051
:10176000F80002EB4002B1FBF5F0584301EB8000BA
:1017700006EBC000B0FBF5F000F00700D6E7000074
:1017800000100140001401402DE9F8439846174627
:101790000D460446089E24E0701C22D0FFF782FA12
:1017A000A0EB0800B0421AD8CEB12068C168490742
:1017B00017D5802D15D0402D13D00168C9430907D6
:1017C0000FD401680025406800902046FFF72EFFE7
:1017D0000820606484F840500120BDE8F8830320AD
:1017E000FBE72068006835EA000004D00020B8421A
:1017F000D2D00020F1E70120F9E7FEE70FB4054B56
:1018000010B503A9044A029800F028F810BC5DF84E
:1018100014FB0000C11C00081C0000200907090E71
:10182000002804DB00F1E02080F80014704700F08D
:101830000F0000F1E02080F8141D704702E008C896
:10184000121F08C1002AFAD170477047002001E03A
:1018500001C1121F002AFBD1704700002DE9FF4F84
:101860008DB00F460546002606E025280BD0DDE9A1
:101870000F1290476D1C761C28780028F5D111B006
:101880003046BDE8F08F0024A246A1460122EC4973
:1018900000E0044315F8013F203B02FA03F0084240
:1018A000F7D128782A2810D06FF02F022878A0F1DD
:1018B0003001092914D80AEB8A0102EB410144F0F6
:1018C000020400EB010A6D1CF0E701CF5FEA000A99
:1018D00003D544F40054CAF1000A44F002046D1C1C
:1018E00028782E2817D115F8010F44F004042A286F
:1018F0000ED06FF02F022878A0F1300109290AD804
:1019000009EB890102EB410100EB01096D1CF2E7D3
:1019100057F8049B6D1C28786C280FD006DC4C28E7
:1019200017D068280DD06A2814D104E0742810D08C
:101930007A280FD10DE044F400140AE044F4801436
:1019400001E044F440146978814202D104F5801426
:101950006D1C6D1C2A786E2A1FD00CDC632A31D0D6
:1019600004DC002A8BD0582A11D1A3E0642A68D065
:10197000692A0CD165E0732A2ED004DC6F2A73D05B
:10198000702A04D19BE0752A6FD0782A6ED0104659
:10199000DDE90F129047761C50E1C4F30250022893
:1019A00006D0032809D0042801CF09D0066045E1FC
:1019B00001CFF117C0E9006140E101CF06803DE1B0
:1019C00006703BE117F8040B8DF8000000208DF83D
:1019D0000100EB46012003E057F804BB4FF0FF3055
:1019E00061074FF0000102D40DE008F101018846C3
:1019F00049450FDA8045F8DB1BF808100029F4D1BF
:101A000008E008F1010188468142FADB1BF8081062
:101A10000029F6D1DDE90F23AAEB08008146214613
:101A200000F036F9304400EB080604E0DDE90F125F
:101A30001BF8010B9047B8F10108F7D22146484640
:101A4000F7E00A21C4F302534FF0000B0891022B78
:101A500004D001CFC117032B09D00AE0FF1D27F0E6
:101A60000707F7E8020108E032E01FE020E000B2DB
:101A7000C117042B01D140B2C117031E71F100033D
:101A800007DA4FF0000CD0EB0C006CEB01012D23BA
:101A900002E0230504D52B238DF82430012303E035
:101AA000E30701D02023F7E7984658E00A2110E029
:101AB00010210EE010204FF0000B08900CE01021D8
:101AC0004FF0000B44F004044FF00809089103E0C4
:101AD00008214FF0000B0891C4F30253022B04D0ED
:101AE00001CF0021032B06D006E0FF1D27F00707DA
:101AF000F7E8020103E080B2042B00D1C0B24FF03E
:101B0000000823072BD5702A07D0DDF820C08CF001
:101B1000100C5CEA0B0C05D00EE040238DF824304D
:101B2000012308E050EA010306D030238DF8243069
:101B30008DF8252002239846DDF820C08CF0080C93
:101B40005CEA0B0C0BD150EA010301D1630706D507
:101B500030238DF824304FF00108A9F10109582AEB
:101B600004D038A20B9208AA0A920BE03AA2F9E735
:101B70005B46089AFEF724FB0B9B9B5C0A9A521E5D
:101B80000A92137050EA0102F2D10A98ADEB0000FC
:101B900000F1200B600702D524F4803401E04FF0FF
:101BA0000109D94502DDA9EB0B0000E0002000EBA4
:101BB0000B0141440890AAEB010AE00306D4DDE9D9
:101BC0000F232146504600F063F806444FF0000909
:101BD00008E009A911F80900DDE90F12904709F1A1
:101BE0000109761CC145F4DBE0030CD5DDE90F23C8
:101BF0002146504600F04CF8064404E0DDE90F129F
:101C000030209047761C0899481E08900029F5DC82
:101C100008E00A980A990078491C0A91DDE90F1238
:101C20009047761CBBF10001ABF1010BF1DC2146C2
:101C30005046DDE90F2300F019F806446D1C1BE641
:101C40000928010030313233343536373839616292
:101C50006364656600000000303132333435363756
:101C60003839414243444546000000002DE9F04127
:101C7000044600251E461746880404D405E039466C
:101C80002020B0476D1C641EF9D52846BDE8F081C0
:101C90002DE9F041044600251E469046C80301D5B3
:101CA000302700E02027880404D505E04146384667
:101CB000B0476D1C641EF9D52846BDE8F0810000D0
:101CC00013B54FF0FF33012269460248FFF7A8FB26
:101CD00000981CBD480000201CB5FEF7F1FFFFF77F
:101CE00053FCFFF711FCFFF7EDFBFFF72BFCFEF7B2
:101CF000FBFA15A1D1E90001CDE9000114A0FFF71D
:101D00007DFD1E4E1E4D40F2231800274FF47A79B8
:101D1000082269464046FEF7CFFA287801280ED1FE
:101D200018A0FFF76BFD002417A0315DFFF766FDDB
:101D3000641C082CF8DB10A0FFF760FD2F704846EC
:101D4000FEF7A6FEE4E7000001020304050607080B
:101D500053797374656D20737461727465642C209B
:101D600043414E204E4F524D414C206D6F64652CC7
:101D7000203530304B6270730D0A000001000020E6
:101D80000000002052583A00253032582000000050
:101D9000000000000000000001020304060708091B
:101DA0000000000001020304C81D0008000000201C
:101DB000200000003C180008E81D0008200000205A
:101DC000700400004C180008000000000000000033
:101DD00000000000010000001000000000000000F2
:081DE0000024F40000000000E3
:040000050800018965
:00000001FF
